:100000000C94B6480C94E7480C94E7480C94E748E5
:100010000C94E7480C94E7480C94E7480C94E748A4
:100020000C94E7480C94E7480C94E7480C94E74894
:100030000C94E7480C94E7480C94E7480C94E74884
:100040000C94E7480C94E7480C94E7480C94E74874
:100050000C94E7480C94E7480C94E7480D945F47EC
:100060000C94E7480C94E7480C94E7480C94E74854
:100070000C94E7480C94E7480C94E7480C94E74844
:100080000C94E7480C94E7480C94E7480C94E74834
:100090000C94E7480C94E7480C94E7480C94E74824
:1000A0000C94E7480C94E7480C94E7480C94E74814
:1000B0000C94E7480C94E7480C94E7480D94230708
:1000C0000C94E7480C94E7480C94E7480C94E748F4
:1000D0000C94E7480C94E7480C94E7480C94E748E4
:1000E0000C94E7480D9431100C94FE580C9454E194
:1000F0000D94C9070D94B3430C94A4F10D94663B81
:100100000D948B100D94E5410D943C0E0D94583BCD
:100110000C9449640C9463E10D9464650D94B600ED
:100120000D9415410D9416130D94623B0C94DEE171
:100130000D946C640D946C130D94C0000C94A6681F
:100140000D94C5000C947CE10D940F0D0C94EE7C85
:100150000D946A650D94BD070D9449000D944613E6
:100160000D94E80D0C94BB550C94E9480C9431E3C4
:100170000D94C6070C94D47F0D94DC0F0D949E3B18
:100180000C94EF730D9408120D943E130D94874256
:100190000D9411120D9439000D943D000D941E1311
:1001A0000D94C2110C94207A0D94C0070D949D3BC0
:1001B0000C94A0800C9471760D94BB000C949778ED
:1001C0000D9436130D940E130D9401100D94676564
:1001D0000C94F2F20D947A110C94287F0D949E11D8
:1001E0000D94D2070D940D3B0D941F120D942E13F8
:1001F0000C947B5A0C944AE10D9484130D940A0DCF
:100200000C94C5E60D9445000D94883B0D946F1138
:100210000D940C050D9495110D944D000D947C13C7
:100220000D94CF070D9451000D945E3B0D94D411A5
:100230000D9456420D9498000D9483110C94F66021
:100240000D94BD100D94963B0D94DD100C9410543C
:100250000D944B000C9477E10D94703B0C946F6CF3
:100260000C94235E0D94923B0C94F4E70C947C5711
:100270000D94140E0C94BB6A0D94000D0D944E1346
:100280000C9479660D9438000C94E0E40D94C30747
:100290000D944F000C94C86E0D94CF000D94CB0FAD
:1002A0000D94F6040D94050D0D94A3000D946C3B74
:1002B0000D94EC0C0D9443000C94D5F30D946165F2
:1002C0000D949A3B0D94E10D0C9468E10D94470058
:1002D0000C94E7710D9439100D945B650C94535C8C
:1002E0000D94F6110C945EE10D9413420D944D1093
:1002F0000C940CE80D94CD0C0C94CBE70D94F10C00
:100300000D94CB110C948A5F0C9444F40D940E1050
:100310000D9457000C94584E0C947B700C948E677F
:100320000D94FF110C945F650C9445E10D94F60C4F
:100330000D945B100C943F770D94AC000C94827E6E
:100340000D94200E0D94B5420C9414620D94FA0F86
:100350000D9467640C9499E40D94FE120C94F17B57
:100360000D94CC070C941FF10D947A3B0C9435E15D
:100370000D94FB0C0C9439F20D9459130D94A13B80
:100380000D945E650C9472E10D94DA100D943F00AB
:100390000D941F430D94E6110D9406050D94D50799
:1003A0000D94A0130D94B0110D94843B0D948C11F9
:1003B0000D94D8070D94DB070D9474130D94A711B9
:1003C0000C944A7B0C9494730C94D4760D94211065
:1003D0000D945D0E0D940B0E0D94B4550C9440E1EC
:1003E0000C94F7E70D9455000C9459E10C946DE1D1
:1003F0000D9441000D9416050D94B3070C94FAE783
:100400000D94DD110D94F6120C94356D0D947E3B18
:100410000D949D3F0D94763B0D941A120D94B141AD
:100420000C94B8690D9409050D9453000C944FE198
:100430000D94B1000C9457520C943E4A0D94340E16
:100440000C945F7C0D94CA000C948F4B0D94500E4D
:100450000C942D630D9461130D94B9110D94061332
:100460000D948C3B0C944F750D9463120C94AA5010
:100470000C94BC6B0D94E6420D94D80F0D9426138A
:100480000D94D4000C94F34C0C94794F6364696E12
:100490006F70737578585B00004B4D3239433034C0
:1004A00030005732394C303430005732394335310F
:1004B00032005732394330313041005733394C30F4
:1004C0003430005733394C303230005733394630EE
:1004D00031300057343946303230005732374530EA
:1004E00034300057323743303200573239433034DA
:1004F000300057323943303230005733394C3531C0
:1005000032005733394C30313000573239443034AF
:100510003043005732394630303200573237453495
:1005200030393600573239463030324E0057323784
:10053000433531320057323746323536005732377D
:10054000433031300049533238463032300049535D
:100550003238463031300049533237433032300080
:1005600049533237433531320049533239463031FD
:10057000300049533237433235360049533237431E
:10058000303130004D583236433130303041004D3B
:100590005832364335313241004D583236433130CE
:1005A000303042004D583237433130303041004D09
:1005B000583237433230303041004D5832374334AF
:1005C00030303041004D58323946303032545000CE
:1005D0004D58323946303430004D5832374334307C
:1005E0003936004D58323743353132004D583237A5
:1005F0004332313030004D583237433830303000DC
:100600004D5832374334303936004D583239463040
:1006100030344250004D5832394630303454500056
:1006200032384634303030004D5832374334303071
:1006300030004D58323846323030305450004D582A
:100640003239463032324250004D5832394630321B
:10065000324E5450004D58323946303032425000FC
:100660004D58323846323030305050004D583237C5
:100670004332303438004D58323743323030304115
:10068000004D5832374332303030004D5832384602
:10069000313030305050004D5832394630303142D0
:1006A00050004D583239463030315450004D583298
:1006B000374331303234004D5832374331313030E6
:1006C000004D5832384631303030004D58323743C3
:1006D000323536004D5832374331303031004D58C5
:1006E00032374331303030004D58323743383030B4
:1006F0003041004D58323743343130300053535479
:10070000333956463034300053535433395646301B
:10071000323000535354333956463031300053533E
:1007200054333956463531320053535433375646D5
:100730003032300053535433375646303130005343
:1007400053543337564635313200535354333756AA
:10075000463034300053535433395346303430002C
:100760005353543339534630323000535354333992
:1007700053463031300053535433395346353132B8
:1007800000535354323753463034300053535432AD
:10079000375346303230005353543237534630319A
:1007A000300053535432375346353132005353548B
:1007B0003237534632353600535354323945453576
:1007C00031320053535432394C4535313200535392
:1007D0005432394C4530323041005353543239454C
:1007E00045303230410053535432394C453031306A
:1007F0004100535354323945453031304100535351
:100800005432394C45353132410053535432394515
:1008100045353132410053535432394C4530323032
:10082000005353543239454530323000535354321B
:10083000394C45303130005353543239454530310D
:10084000300053535432384C463034300032374342
:1008500032303030004D534D323731303234004D6C
:10086000534D323731303030004D534D32374332F3
:10087000303438004D534D32374331303234004834
:1008800059323946303032545000485932394630A6
:1008900034300048593239463030324250004859DD
:1008A0003237433634004D32374336344100544DED
:1008B0004D323431323841005443353846303130CE
:1008C00000544335343235364146005443353748B9
:1008D00031303234414400544D4D32373235364296
:1008E00044005443353434303030500054433534B0
:1008F0004831303234500054433537313030304491
:100900000054433534353132415000544D4D32346A
:100910003235364100544D4D323436344100544363
:1009200035374832353644003537383230304400B8
:10093000544D4D323435313200544335373430392B
:100940003644005443353731303234440054433553
:100950003731303031440054433537323536440076
:1009600032384632313000534D4A3237433031301D
:100970004100544D5332374332313041004D4D32F6
:10098000394C463034304500544D533237433231C0
:100990003000544D5332374335313200544D5332C9
:1009A00037433132380032384630343000544D53FA
:1009B00032384630313000544D53323846353132BA
:1009C00000544D5332374330343000544D53323796
:1009D0004330313000544D533237433032300054BD
:1009E0004D5332374332343000544D53383743354A
:1009F000313000544D53323743333200544D53326B
:100A00003743363400544D53323743323536003293
:100A100037433235360032373132380032373634E8
:100A2000004E4D323743323430004E4D433237435F
:100A300050313238004E4D32374331303234004E6F
:100A40004D323743323536004E4D4332374336341C
:100A5000004E4D43323743303130004E4D32374334
:100A6000353132004E4D323743313238004E4D432E
:100A7000323743313642004E4D323743323034380C
:100A8000004E4D323743303430004E4D3237433014
:100A90003230004E4D4332374332353642004E4DF0
:100AA00043323743363442004E4D433237433332BC
:100AB0004200323732313000323743353132003282
:100AC0003743313238003237433531330032374320
:100AD0003430300032374332313000503238463013
:100AE0003230003238463235364100323846353100
:100AF00032005032384630313000323846323536E6
:100B00002D42003238463235362D540050323846A8
:100B100030303142582D4200503238463030314268
:100B2000582D54003237463235360032374332358D
:100B3000360032373132384100323730313100320D
:100B400037313238003238463030324243003237A3
:100B50004330343000323743303130410032374394
:100B600030313000323743303230003237433130A9
:100B700030003237433031310038374332353700B7
:100B80003237353133005032373531320032373673
:100B9000344100323743363400323730313000329E
:100BA0003732353600443237463634003237333246
:100BB0004100503237313238410038374336340043
:100BC00050323736344100503237433634005032D9
:100BD00037323536004153323946303032542D5099
:100BE00000415332394630343000415332394630B7
:100BF0003032422D500041533239463031300050AE
:100C000044543239463031304C0041323930313081
:100C10000041323935313241004132394C303430C3
:100C20004C004132373533303800413239303032C0
:100C300054004132393034300041323738333038A3
:100C400041004132373733303800413239303031AA
:100C50003155004132373633303800413237363380
:100C60003038410041323930303255004359323743
:100C70004832353600435932374332353641004326
:100C800059433237433031300043415432384630D3
:100C900032300043415432384635313200434154FA
:100CA00032384630313000434154323748433235D0
:100CB00036004341543237433231300032374843F3
:100CC0003235360032374843363400323743323516
:100CD0003600323743313238003237484336343108
:100CE0000032374335313200323732353600323751
:100CF000433634005753353743303130460057536D
:100D00003537433235364642005753323743303455
:100D1000304C00573237433231304C005753323762
:100D2000433531324C0057533237433031304C0069
:100D300057533237433235364C00575332374335E9
:100D40003132460057533537433235364600575314
:100D5000353743313238460032385634323000327B
:100D60003846343230004D32384632303100323875
:100D70005634313000323846343130004D32395734
:100D8000303430004D323946303430004D32374344
:100D9000313630004D323946303032540032384628
:100DA00032353641004D323846323536004D323715
:100DB0004332353642004D32374331303234004D04
:100DC000323731323841004D323743313030300024
:100DD0004D383743323537004D32374332303031BA
:100DE000004D3237433430303242004D32374338D1
:100DF0003031004D32374334303031004D323731ED
:100E00003641004D323743353132004D32374333AE
:100E10003232004D323743333230004D32394635AD
:100E2000313242004D32395730313042004D323983
:100E30004630313042004D3237333241004D323787
:100E400043353136004D3237353132004D32373689
:100E50003441004D323846313031004D3237433164
:100E6000303031004D323743323536004D3238465E
:100E70003531320033324331360041543239433256
:100E80003536004154323943303230004154323922
:100E90004330313041004154323943303430410025
:100EA0004154323748433235360041543237484393
:100EB0003634004154343946303130003237433013
:100EC00031310041543237433132380032374843F0
:100ED00031300041543239433531320041543239D6
:100EE00043303430004154343946303130004154BD
:100EF000343946303430004154343946303430547B
:100F000000323743353133004154323743353132C3
:100F1000004154343946303230004154343946307F
:100F20003032540041543439463030320041543468
:100F30003946303031004154343946303031540074
:100F4000415434394635313200415432374332301E
:100F5000343800415432374334303936004154324A
:100F60003743353136004154323743313032340063
:100F700041543237484332353600415432374332D8
:100F8000353600415432374330383000415432371F
:100F9000433032300041543237484331303234002C
:100FA000323748433634310032374335313352001B
:100FB0004154323743353132520041543237433095
:100FC0003430004154323743303130004D354D32EA
:100FD00038463130314100454E32394630303241A9
:100FE0004E420050453239463030324E004D354D7C
:100FF0003237433430324B004D354D323743323087
:10100000314B004D354D3237433130324B004D3589
:101010004D3237433130314B004D354D323846314A
:101020003032414650004D354D3238433634415010
:1010300000454E32394635313200454E3239463060
:101040003130004D354D3237433430314B004D3562
:101050004C3237353132004D354D32374332303234
:101060004B004D354D323743323536414B004D350F
:101070004D32374335313241004D354D32373235FF
:1010800036004D354D3237433130304B004D354D04
:101090003237433235364B00323743323536003241
:1010A0003743303130003237433234300032374347
:1010B0003531320032374332313000323743363443
:1010C0004100755044323743313030314100755062
:1010D0004432374334303031007550443237433274
:1010E00030303100755044323743313032344100B2
:1010F00075504432374334303936007550443237F6
:101100004332353600755044323743383030300082
:1011100075504432374332353641007550443237CA
:10112000433830303100755044323743313030313C
:1011300044007550443237433130323400755044E6
:101140003237433531320075504432374331303015
:10115000304100755044323732353600484E323710
:1011600043313032344800484E3237433330314116
:1011700000484E32374332353600484E323743341A
:1011800030393600484E32373531324700484E321A
:1011900037433130314100484E32374332353641E2
:1011A00000484E3237433430303100484E32373207
:1011B000353600484E323731323841004D424D32DB
:1011C000374334303031004D424D323743313030C7
:1011D00031004D424D32374331303030004D424DB9
:1011E000323743353132004D424D3239463030329C
:1011F00054004D424D323946303430004D424D326C
:101200003846303130004D424D323946303034426C
:1012100043004D424D3239463030345443004D4244
:101220004D32374334303936004D424D3237433436
:10123000303030004D424D32374331303234004D82
:10124000424D32374332353641004D424D323946F8
:1012500030303242004D424D323743323034380064
:101260004D424D323732353600416D3239463030DD
:10127000325400416D3238463531324100416D32D1
:10128000384630313000416D32394630343000411B
:101290006D3238463031304100416D32384632359A
:1012A0003600416D32374330343000416D323743C0
:1012B0003230343800416D32374330323000416DC6
:1012C00032374335313200416D32374331303234B9
:1012D00000416D323836344100416D323731323899
:1012E0004100416D323731364200416D3237353180
:1012F0003200416D323946303034424200416D3265
:101300003946303034425400416D32394630303243
:101310004200416D3238463235364100416D323837
:101320004630323000416D32384630323041004173
:101330006D32384635313200416D32394630313008
:1013400000416D3237433430393600416D32374316
:1013500031323800416D323743363400416D323717
:101360004332353600416D32374330313000416D04
:1013700032374331303000416D323736344100412D
:101380006D323733324200416D323732353600002C
:10139000009804D5EC9904D6DAA204C8DAAA04C1EC
:1013A000DAB204B6DABB04B5DAC304A1DACB048C32
:1013B000DAD30486DADB0485DAE30446DAEA0445A4
:1013C000DAF20438DAFA0431DA020526DA0A0525F7
:1013D000DA13050DDA1B050BDA240508DA2D0502F0
:1013E000DA350501DA3D05BDD54505B4D54E05977D
:1013F000D5570591D5600520D5690510D572050E24
:10140000D57B05D2C28405D1C28F05CFC29905CA4A
:10141000C2A405C3C2AF05C0C2BA05B0C2C505A407
:10142000C2D00597C2D90591C2E3058AC2EC0580F6
:10143000C2F60551C2000646C20A0645C21506415B
:10144000C2200640C228063CC2320637C23E0636DB
:10145000C2490634C255062AC2600622C26C062161
:10146000C2760620C281061AC28B0619C2970618D8
:10147000C2A20615C2AD0612C2B70611C2C106103D
:10148000C2CB060FC2D4060EC2DE0602C2E80600B8
:10149000C2F306D7BFFD06D6BF0807D5BF1307D4D2
:1014A000BF1E07C6BF2907C5BF3407C4BF3F07C259
:1014B000BF4A07B7BF5507B6BF6007B5BF6B07B4D4
:1014C000BF7607A7BF8107A6BF8C07A5BF9707A454
:1014D000BFA207A3BFAD075DBFB8073DBFC30725C8
:1014E000BFCE0724BFDA0723BFE60722BFF20721DA
:1014F000BFFE0720BF0A0812BF160810BF21080848
:10150000BF2C0807BF370804BF420889AE4D0886C4
:10151000AE550885AE5F080BAE690807AE7408B01B
:10152000AD7F0840AD8A0834AD930808A79E08082F
:101530009BA608D398AE08CB98B808C498C1089861
:1015400098CB089498D7088C98E2088998EC08867C
:1015500098F7088598010954980B09529815094580
:10156000981E091C982809159830090E9839090801
:1015700098430907984D0904985709E5976009D6DB
:10158000976709AB97720994977D098697880985B3
:1015900097920983979C097997A6097597AD097366
:1015A00097B7095097C1094697CB093297D50930AB
:1015B00097DF091597E9090897F3090797FC0904CC
:1015C00097050AC2940F0AC194160A40941C0AEEA9
:1015D0008F210AE38F2A0AD68F350AC48F3F0AC2A9
:1015E0008F480A868F510A858F5B0A838F640A8031
:1015F0008F6D0A578F770A088F810A078F8A0A042E
:101600008F930A028F9E0A018FA80AFF89B20AFDF2
:1016100089B80AFC89BF0AF989C60AEF89CD0AEEA2
:1016200089D40ABD89DB0AB989E30AB889EB0AB40F
:1016300089F20AB289FA0AB189030B95890C0B94D5
:1016400089180B9189240B8C892B0B8989320B8586
:1016500089390B83893F0B7C89450B3D894E0B3BB8
:1016600089550B35895D0B3489640B32896B0B31DD
:1016700089720B2489790B0F89800B0D89860B08E1
:10168000898D0B0789930B0589990B04899F0B039F
:1016900089A50B0189AC0B8988B20B3788BA0B0876
:1016A00088C00B0788C70B0488CE0BB052D50BA49B
:1016B00052E10B3452EA0B0452F60B0140FF0BA42B
:1016C000370A0CA137110C9237190C8D37220C8C6C
:1016D000372A0C8637320C6437390C6137420C4C90
:1016E000374A0C3D37530C2C375B0C0D37640C21FB
:1016F000346C0C1F34750C1D347F0CBD31890CB853
:1017000031930CB4319D0C4031A70C0731B20C94CD
:1017100029BC0C9129C40C8C29CB0C8329D20C1028
:1017200029D90C0D29E10C0429E80C0229EE0CF84A
:1017300023F40CE023FE0CD023090DC923130DC3A1
:10174000231C0DC123260DC023300DAA233A0DA85A
:1017500023440DA6234E0DFB20580DFA205F0DF4F7
:1017600020660DF3206E0DF220750DE3207C0DE256
:1017700020840DB1208C0DB020940DAA209D0DA8C1
:1017800020A50D8D20AD0D8C20B60D8920BF0D86B6
:1017900020C70D8020D00D6120D80D4420E10D42DE
:1017A00020EB0D4120F30D3F20FC0D3D20030E34B6
:1017B000200B0E3220130E24201B0E2320240E207B
:1017C000202D0E1320360E0F203D0E0D20450E0845
:1017D000204C0E0720530E05205B0E0420640E02E1
:1017E000206C0EF21F740EDC1F7A0EDA1F830ED5EA
:1017F0001F8C0EA41F960E941FA00E911FAA0E8779
:101800001FB30E851FBC0E831FC30E611FCC0E5D60
:101810001FD30E5B1FDC0E171FE50E131FEE0E12FB
:101820001FF70E0E1F010F0D1F080F0B1F110F08C2
:101830001F1A0F071F240F051F2D0F041F360F033C
:101840001F400FF71E490FF41E530FF21E5D0FF1DC
:101850001E660F941E700F8C1E7A0F8A1E830F86D1
:101860001E8C0F611E950F101EA00F0E1EA80F0DCF
:101870001EB00F0B1EBA0F051EC30FD01CCC0F9746
:101880001CD70F921CE30F8F1CED0F8A1CF80F85DD
:101890001C0310831C0E10511C1910401C26102113
:1018A0001C3110201C3A100E1C43100D1C4E100B46
:1018B0001C5710081C6210071C6E10041C791002C3
:1018C0001C8210011C8D108C15981025159F10205E
:1018D00015A6101D15AD101715B4100B15BB10D69D
:1018E00010C210C810CE10C710D910B610E410A83E
:1018F00010F010A410FB108910051164101011498C
:10190000101B11461026112610321125103D1116FC
:1019100010471104105311BA075C11B9076711B0D1
:10192000077111A2077A119407841138078D1131BC
:101930000797112007A1111007AB110D07B311F480
:1019400004BC11E604C711E504D211E304DD11B0B3
:1019500004E711A404F2118F04FC117B0406127732
:1019600004121275041E12730429126404341262E4
:10197000043F1234044A120D04551202046012B0DE
:10198000016912AE017312A7017D12A4018612A291
:10199000018F12A10199129B01A2129801AB12971B
:1019A00001B5129101BE128C01C7128A01D11289B0
:1019B00001D9128601E2128501EA127B01F2127747
:1019C00001FD12340108132F0112132A011C1329DF
:1019D00001251325012F1320013813190141131676
:1019E000014B131501541310015C130E0165130D07
:1019F000016E130801771307017F13040187130099
:101A00000000006410B71DC8206E3BAC30D9269092
:101A100041DC76F4516B6B5861B24D3C710550203E
:101A200083B8ED44930FF0E8A3D6D68CB361CBB066
:101A3000C2649BD4D2D38678E20AA01CF2BDBD005A
:101A40001F1115111F000008080E00040E1F000AC8
:101A50000E0A001F0E0400000012121B1B1B0000C8
:101A60000009091B1B1B0000001B1212121B0000A7
:101A7000001B121B091B00001F1F1F1F1F0000005F
:101A80001F1111111F00000000000000001500567A
:101A9000053A0056043A002063726561746564007B
:101AA000436865636B696E673A204D6172636820B5
:101AB0005500436865636B696E673A204D617263D8
:101AC0006820590050756C6C75707320656E61628A
:101AD0006C65640054657374696E672000437265B9
:101AE0006174696E67200043524333323A200043E9
:101AF00072656174696E67204353560043524333E5
:101B0000323A20004578616D696E652063757374A3
:101B10006F6D204352433332005573696E6720491D
:101B20006E64657866696C650028452950524F4D92
:101B300020697320656D7074790043616C63756C06
:101B400061746564200053617665642000206372CF
:101B500065617465640042616E6B207377697463BC
:101B600068696E670043616C63756C6174696E6768
:101B70002000536176696E672000FB19F719F3198D
:101B8000EF19EB19E719E319DF19DB19D719D31985
:101B9000CF19CB19C719C319BF19BB19B719B31975
:101BA000AF19AB19A719A3199F199B199719931965
:101BB0008F198B19871983197F197B197719731955
:101BC0006F196B19671963195F195B195719531945
:101BD0004F194B19471943193F193B193719331935
:101BE0002F192B19271923191F191B191719131925
:101BF0000F190B1907190319FF18FB18F718F31819
:101C0000EF18EB18E718E318DF18DB18D718D3180C
:101C1000CF18CB18C718C318BF18BB18B718B318FC
:101C2000AF18AB18A718A3189F189B1897189318EC
:101C30008F188B18871883187F187B1877187318DC
:101C40006F186B18671863185F185B1857185318CC
:101C50004F184B18471843183F183B1837183318BC
:101C60002F182B18271823181F181B1817181318AC
:101C70000F180B1807180318FF17FB17F717F317A0
:101C8000EF17EB17E717E317DF17DB17D717D31794
:101C9000CF17CB17C717C317BF17BB17B717B31784
:101CA000AF17AB17A717A3179F179B179717931774
:101CB0008F178B17871783177F177B177717731764
:101CC0006F176B17671763175F175B175717531754
:101CD0004F174B17471743173F173B173717331744
:101CE0002F172B17271723171F171B171717131734
:101CF0000F170B1707170317FF16FB16F716F31628
:101D0000EF16EB16E716E316DF16DB16D716D3161B
:101D1000CF16CB16C716C316BF16BB16B716B3160B
:101D2000AF16AB16A716A3169F169B1697169316FB
:101D30008F168B16871683167F167B1677167316EB
:101D40006F166B16671663165F165B1657165316DB
:101D50004F164B16471643163F163B1637163316CB
:101D60002F162B16271623161F161B1617161316BB
:101D70000F160B1607160316FF15FB15F715F315AF
:101D8000EF15EB15E715E315DF15DB15D715D315A3
:101D9000CF15CB15C715C315BF15BB15B715B31593
:101DA000AF15AB15A715A3159F159B159715931583
:101DB0008F158B15871583157F157B157715731573
:101DC0006F156B15671563155F155B155715531563
:101DD0004F154B15471543153F153B153715331553
:101DE0002F152B15271523151F151B151715131543
:101DF0000F150B1507150315FF14FB14F714F31437
:101E0000EF14EB14E714E314DF14DB14D714D3142A
:101E1000CF14CB14C714C314BF14BB14B714B3141A
:101E2000AF14AB14A714A3149F149B14971493140A
:101E30008F148B14871483147F147B1477147314FA
:101E40006F146B14671463145F145B1457145314EA
:101E50004F144B14471443143F143B1437143314DA
:101E60002F142B14271423141F141B1417141314CA
:101E70000F140B1407140314FF13FB13F713F313BE
:101E8000EF13EB13E713E313DF13DB13D713D313B2
:101E9000CF13CB13C713C313BF13BB13B713B313A2
:101EA000AF13AB13A713A3139F139B139713931392
:101EB0008F1353616D73756E670057696E626F6E35
:101EC000640049535349004D6163726F6E69780035
:101ED000535354004F6B69004879756E6461690013
:101EE00053542F53475300546F7368696261005411
:101EF0004900534545510046532F4E6174696F6E3A
:101F0000616C00496E74656C00496E74656C0041CB
:101F10006C6C69616E636500506572666563740020
:101F2000414D494300437970726573730043617496
:101F3000616C7973740047492F4D4368697000578D
:101F400053490053542F5347530041746D656C003F
:101F500041746D656C004D6974737562697368696D
:101F6000005369676E2E2F5068696C697073004E5C
:101F7000454300486974616368690046756A69741D
:101F8000737500414D4400004D66722E3A00446561
:101F9000762E3A004964656E7469666979696E6780
:101FA000200056053A0056043A000053656C6674EA
:101FB0006573740000456E74657220436F6E6669C8
:101FC000670000496E666F000053656172636800C8
:101FD000323536342050524F472041646170746569
:101FE000720032353634003235363400323733320F
:101FF0002050524F4720416461707465720032373F
:102000003332003237333200323533320032353337
:102010003200544D53323731362050524F47204111
:102020006461702E00544D533237313600544D5395
:102030003237313600323731362F32353332205095
:10204000524F4720416461702E00323731362F32B3
:1020500035313600323731362F32353136003237AE
:1020600030382050524F47204164617074657200CF
:1020700032373038003237303800524F4D00437518
:1020800073746F6D20524F4D203300524F4D0043FB
:102090007573746F6D20524F4D203200524F4D00BA
:1020A000437573746F6D20524F4D2031004452417F
:1020B0004D00437573746F6D204452414D203300C1
:1020C0004452414D00437573746F6D204452414D2D
:1020D0002032004452414D00437573746F6D2044AB
:1020E00052414D2031005352414D00437573746F7E
:1020F0006D205352414D203132005352414D004327
:102100007573746F6D205352414D2031310053521D
:10211000414D00437573746F6D205352414D203112
:1021200030005352414D00437573746F6D2053520C
:10213000414D2039005352414D00437573746F6D0A
:10214000205352414D2038005352414D0043757386
:10215000746F6D205352414D2037005352414D0052
:10216000437573746F6D205352414D2036005352A6
:10217000414D00437573746F6D205352414D2035AE
:10218000005352414D00437573746F6D205352419B
:102190004D2034005352414D00437573746F6D20D0
:1021A0005352414D2033005352414D0043757374D7
:1021B0006F6D205352414D2032005352414D004328
:1021C0007573746F6D205352414D20310000436C84
:1021D0006F636B2047656E657261746F72000056A5
:1021E000697375616C2046757A7A792054657374C9
:1021F00000004964656E74696679204C6F67696395
:102200002049430050414C0050414C203234706909
:102210006E0050414C0050414C20323070696E00CD
:10222000004D697363205465737473003E4B3137FE
:10223000362C4B35363100005553535220434D4F09
:1022400053204C6F676963003E4B3135352C4B355D
:1022500033312C4B353535000055535352205454EF
:102260004C204C6F676963003E43412C554C4E2C0B
:10227000447878782C4D69736300004D697363204E
:102280004C6F6769632054657374732032003E3865
:1022900078782C38542C416D2C3235782C444D2CC8
:1022A000445300004D697363204C6F676963205489
:1022B000657374732031000034353030204C6F6703
:1022C0006963205465737473000034303030204CDF
:1022D0006F6769632054657374730000373530305D
:1022E000302B204C6F676963205465737473000052
:1022F00037343630302B204C6F6769632054657358
:102300007473000037343330302B204C6F676963AF
:102310002054657374730000373430302B204C6FB9
:1023200067696320546573747300383253363431EF
:1023300000383253363431202D20386B2078380065
:1023400038325333323100383253333231202D207A
:10235000346B2078380038325331393500383253F5
:10236000313935202D20346B207834003832533108
:102370003930003832533139302F313931202D2066
:10238000326B2078380038325331383400383253C9
:102390003138342F313835202D20326B20783400FD
:1023A000373453343738003734533437382F3437D1
:1023B00039202D20316B20783800373453343736AC
:1023C000003734533437362F353732202D20316BD8
:1023D00020783400373453343734003734533437AB
:1023E000342F343735202D203531327838003734CA
:1023F00053343732003734533437322F34373320A5
:102400002D203531327838003734533237300037A9
:1024100034533237302F353730202D203531327854
:102420003400373453323731003734533237312F99
:10243000343730202D203235367838003734313873
:10244000370037343138372F3238372F3338372089
:1024500032353678340056043A31312056053A3256
:10246000340037343138360037343138362036349A
:102470007838003734383800373438382F31383826
:102480002F323838202D203332783800323830342B
:102490000032383034202D2035313278382045450F
:1024A00050524F4D00363637300036363730202DFB
:1024B00020313238783778350056043A313020569A
:1024C000053A3234003235313300524F2D332D323C
:1024D000353133202D203634783878350056043A9B
:1024E00030312056053A3132003635343000363539
:1024F0003430202D20326B207820380032333430B5
:10250000303000323334303030202D203531326BD2
:1025100020782038003233323030300032333230DD
:102520003030202D203235366B2078203800323381
:102530003130303000323331303030202D203132E4
:10254000386B207820380032333531320032333561
:102550003132202D2036346B20782038003233324F
:102560003536003233323536202D2033326B207829
:102570002038003233313238003233313238202DB6
:102580002031366B20782038003233363428323808
:1025900029003233363428323829202D20386B2058
:1025A000782038003233363428323429003233363A
:1025B0003428323429202D20386B207820380032FE
:1025C0003333320032333332202D20346B207820E5
:1025D00038003233313642003233313642202D203A
:1025E000326B2078203800323331364100323331BB
:1025F0003641202D20326B2078203800323330389D
:102600000032333038202D20316B207820380032D2
:10261000373235362B0045532032373235362D329E
:102620003735313200323736342B004553203237BC
:1026300036342D3237313238005643532F3236304C
:10264000302041646170746572005643532F3236F6
:102650003030005643532F3236303020436172748D
:1026600000544D533235363400544D5332353634E0
:10267000202D20386B2078203800544D53323731CC
:102680003600544D5332373136202D20326B2078AE
:10269000203800323730380032373038202D2031A2
:1026A0006B2078203800012056063A313920560731
:1026B0003A323100323730340032373034202D2076
:1026C0003531322078203800313730322041646192
:1026D0007074657200313730320031373032202D5E
:1026E000203235362078203800323734303031000F
:1026F000323734303031202D203531326B20782084
:102700003800323732303031003237323030312019
:102710002D203235366B2078203800323733303177
:10272000003237333031202D203132386B20782081
:1027300038003237313030310032373130303120EB
:102740002D203132386B2078203800323735313245
:10275000003237353132202D2036346B2078203846
:10276000003237323536003237323536202D2033BD
:10277000326B20782038003237313238003237312E
:102780003238202D2031366B207820380032373611
:10279000340032373634202D20386B207820380032
:1027A000323733320032373332202D20346B2078E9
:1027B000203800323731360032373136202D203282
:1027C0006B207820380037323034504C4343003788
:1027D00032303420504C434320283430393620786E
:1027E0002039290037323033504C434300373230E0
:1027F0003320504C4343202832303438207820395D
:10280000290037323032504C4343003732303220C7
:10281000504C43432028313032342078203929006D
:1028200037323031504C4343003732303120504C36
:10283000434320283531322078203929003732307F
:1028400030504C4343003732303020504C4343200B
:102850002832353620782039290037323034003795
:102860003230342028343039362078203929003766
:102870003230330037323033202832303438207849
:1028800020392900373230320037323032202831B7
:102890003032342078203929003732303100373255
:1028A0003031202835313220782039290037323034
:1028B0003000373230302028323536207820392920
:1028C000003734373430340037343734303420284C
:1028D0003634207820352900373432333500373408
:1028E00032333520283634207820352900373432E9
:1028F00033342F33360037343233342F33362028F5
:10290000363420782034290037343232392F3333AB
:102910000037343232392F333320283136207820B3
:1029200035290037343232350037343232352028F9
:10293000313620782035290037343232342F32387E
:102940000037343232342F32382F333220283136A8
:1029500020782034290037343232322F3237003792
:10296000343232322F323720283136207820342941
:1029700000343031303500343031303520283136B4
:102980002078203429003636303520416461707457
:10299000657200363630350036363035202D20341D
:1029A0006B207820310034303038204164617074FD
:1029B000657200343030380034303038202D20310A
:1029C0006B20782031005A495031303234005A4956
:1029D000503230202D20313032346B2078203400BA
:1029E0005A495031303234005A49503230202D206B
:1029F000313032346B20782031005A49503235362C
:102A0000005A49503230202D203235366B20782044
:102A100034005A4950313620416461707465720047
:102A20005A4950323536005A49503136202D20321D
:102A300035366B20782031005A49503230204164BD
:102A40006170746572005A49503634005A495032E8
:102A500030202D2036346B207820340053494D4DE2
:102A600020502E0053494D4D33302D5020313032FF
:102A7000346B207820310053494D4D0053494D4D62
:102A8000333020313032346B207820380053494DB8
:102A90004D20502E0053494D4D33302D50203235AE
:102AA000366B207820310053494D4D33302041643E
:102AB00061707465720053494D4D0053494D4D335B
:102AC00030203235366B20782038003431313238BE
:102AD000204200343131323820424F54202D2036EC
:102AE000346B2078203100343131323820540034B6
:102AF0003131323820544F50202D2036346B20781D
:102B000020310034333332204D320034333332201D
:102B10004D32202D2033326B207820310001205699
:102B2000053A31312056063A30382056073A3031CE
:102B30000034333332204D310034333332204D31C1
:102B4000202D2033326B2078203100343133322075
:102B50004D320034313332204D32202D2033326B50
:102B60002078203100012056053A31302056063AAF
:102B700030392056073A30310034313332204D316C
:102B80000034313332204D31202D2033326B207808
:102B9000203100343430384E4C4200343430384E1A
:102BA0004C42202D20386B207820340034343038CB
:102BB0004E4C5400343430384E4C54202D20386B59
:102BC00020782034003532393842003532393842E5
:102BD000202D20386B2078203100353239384100E3
:102BE0003532393841202D20386B2078203100349F
:102BF0003130382D783100343130382D7831202D76
:102C000020386B2078203100343130382D78300076
:102C1000343130382D7830202D20386B2078203119
:102C2000003231303848003231303848202D2038D9
:102C30006B2078203100323130384C00323130385E
:102C40004C202D20386B20782031007878333248A2
:102C5000007878333248202D2033326B20782031B1
:102C600000787833324C00787833324C202D203382
:102C7000326B20782031003431303234003431303E
:102C80003234202D20313032346B20782031005600
:102C9000043A32302056053A313000343432353679
:102CA000003434323536202D203235366B207820F2
:102CB000340056043A31362056053A303800343163
:102CC000323536003431323536202D203235366BF0
:102CD0002078203100343436340034343634202D1A
:102CE0002036346B207820340056043A3136205692
:102CF000053A303800343136340034313634202D42
:102D00002036346B207820310056043A3138205672
:102D1000053A303900343431360034343136202D20
:102D20002031366B207820340056043A3136205654
:102D3000053A303800323131380032313138202D07
:102D40002031366B20782031003431313600343177
:102D50003136202D2031366B207820310032313051
:102D6000372041646170746572003231303700324F
:102D7000313037202D20346B20782031000120564F
:102D8000053A30392056063A30382056073A303165
:102D900000323130340032313034202D20346B2079
:102DA000782031007878323537007878323537201E
:102DB0002D2033326B2078203800783132393900B9
:102DC0007831323939202D2036346B207820340088
:102DD0007831323938007831323938202D20363484
:102DE0006B20782034007831323831007831323835
:102DF00031202D2036346B20782034007831323564
:102E000038007831323538202D2036346B20782048
:102E100034007831323537007831323537202D2083
:102E20003235366B207820310078313032360078F8
:102E300031303236202D203235366B207820340068
:102E4000783432330078343233202D203235362036
:102E500078203400783139383100783139383120F0
:102E60002D2031366B2078203400783139384100FC
:102E70007831393841202D2031366B2078203400CC
:102E8000783139380078313938202D2031366B20AF
:102E900078203400783138380078313838202D20C7
:102EA00031366B207820340078313837007831386B
:102EB00037202D2036346B207820310078313730A0
:102EC0000078313730202D20346B20782034007882
:102ED00031363831007831363831202D20346B20AE
:102EE00078203400783136380078313638202D207B
:102EF000346B20782034007831363700783136371B
:102F0000202D2031366B207820310078313530008B
:102F100078313530202D20316B2078203400373443
:102F200038312F3734383420416461707465720051
:102F3000373438312F383400373438312F3734387C
:102F400034202D20313620782031003430333900C0
:102F5000544334303339202D203420782038003742
:102F6000343137302F3637300037343137302F3760
:102F700034363730202D2034207820340038313852
:102F8000350038313835202D20316B20782038003D
:102F900038325332313200383253323132202D2020
:102FA000323536207820390038325332313000281B
:102FB00038325332313029202D20323536207820D6
:102FC000390056043A31312056053A32320038324F
:102FD00053323038002838325332303829202D20EF
:102FE00032353620782038003831433534003831D6
:102FF000433534202D2035313220782038003831C7
:10300000433531003831433531202D2032353620DB
:103010007820380056043A30372056053A313600C9
:103020003831433530003831433530202D203235AA
:1030300036207820380036353631003635363120A6
:103040002D203235362078203400373439323100A3
:103050003734393231202D20323536207820340073
:1030600056043A30382056053A3232003734393275
:1030700030003734393230202D2032353620782058
:103080003400323131320032313132202D203235AC
:1030900036207820340056043A30382056053A312C
:1030A0003800323131310032313131202D2032358A
:1030B00036207820340056043A30382056053A320B
:1030C0003200323130310032313031202D20323572
:1030D00036207820340039333431300039333431FC
:1030E00030202D20323536207820310033313036F3
:1030F0000033313036202D20323536207820310013
:1031000056043A30312056053A32340036383130E0
:103110000036383130202D203132382078203800E8
:103120003933343139003933343139202D203634B4
:103130002078203900373439313000373439313094
:10314000202D203634207820340056043A303720A1
:1031500056053A31340034353035003435303520B9
:103160002D20363420782031003734323139003781
:1031700034323139202D203136207820340033315B
:1031800030310033313031202D2031362078203459
:1031900000004578697400787831303234007878EE
:1031A00031303234202D203132386B2078203800F5
:1031B00056043A31362056053A33320078783531A4
:1031C00032007878353132202D2036346B2078204B
:1031D00038007878323536007878323536202D2030
:1031E00033326B207820380056043A3134205605AB
:1031F0003A323800787836340078783634202D200A
:10320000386B20782038007878313600787831367D
:10321000202D20326B2078203800323134370032B4
:10322000313437202D20346B207820310056043A79
:1032300031322056053A32340034313138410034CD
:1032400031313841202D20316B2078203800560450
:103250003A31302056053A323000323134320032C1
:10326000313432202D20316B207820340056043A3E
:1032700032322056053A3137003635353000363592
:103280003530202D20316B207820340056043A3020
:10329000392056053A31380032313134003231317B
:1032A00034202D20316B207820340056043A3038F9
:1032B0002056053A31360032313135003231313560
:1032C000202D20316B207820310056043A303920EF
:1032D00056053A313000323130320032313032204E
:1032E0002D20316B20782031000000003E536561B5
:1032F0007263682C496E666F2C436F6E6669670057
:10330000005345525649434500000050524F475222
:10331000414D4D494E47003E437573746F6D2064B7
:103320006566696E6974696F6E7300004355535426
:103330004F4D003E373478782C343078782C50411B
:103340004C2C4D69736300004C4F474943003E3796
:103350003438382C3734533237312C3832533332F7
:1033600031000050524F4D2F524F4D2032003E320F
:10337000337878782C363534302C323531330000C0
:1033800050524F4D2F524F4D2031003E32377878FA
:10339000782C313730322C455300004550524F4D78
:1033A000003E34303130352C37343232322C373421
:1033B00032333500004649464F003E343131323811
:1033C0002C343333322C53494D4D2C5A4950000084
:1033D0004452414D7320756E636F6D6D6F6E003E8C
:1033E000323130342C343131362C343136342C34C3
:1033F00034363400004452414D7320636F6D6D6F5D
:103400006E003E783136372C783136382C783132B0
:10341000353700005352414D7320637970726573E4
:1034200073003E333130312C323130312C32313176
:10343000312C3831383500005352414D7320756EB0
:10344000636F6D6D6F6E003E323130322C32313130
:10345000342C363535302C787831360000535241D3
:103460004D7320636F6D6D6F6E0000001401AB1F14
:10347000AA1FE93200001301B51FB41FE932000092
:103480001201C31FC21FE93200001101C91FC81F6A
:10349000E93200042C01E71FE21FD01F00042B01BA
:1034A0000320FE1FEC1F00042A010D2008203520F8
:1034B000000429012D202520122000042801542079
:1034C0004A20352000042701752070205E2020004E
:1034D00026017E207A20E932200025018F208B20D2
:1034E000E93220002401A0209C20E93208002301B9
:1034F000B220AD20E93208002201C520C020E93207
:1035000008002101D820D320E93204002001EB205B
:10351000E620E93204001F01FF20FA20E93204000E
:103520001E0113210E21E93204001D012721222151
:10353000E93204001C013A213521E93204001B0163
:103540004D214821E93204001A0160215B21E93252
:103550000400190173216E21E9320400180186214B
:103560008121E9320400170199219421E9320400F4
:103570001601AC21A721E93204001501BF21BA21AF
:10358000E93200001001CE21CD21E93200000F0107
:10359000DF21DE21E93200000E01F221F121E932C2
:1035A00000010D0108220422E93200010C0116225B
:1035B0001222E93240000B0121222022E932400090
:1035C0000A01382237222C224000090159225822B0
:1035D0004822400008017B227A226822400007012D
:1035E000A422A3228E2240000601B822B722E9328B
:1035F00040000501CA22C922E93240000401DC2250
:10360000DB22E93240000301F022EF22E9324000E0
:10361000020104230323E932400001011823172388
:10362000E9322000000131232A232D322000FF003F
:10363000472340232D322000FE005D2356234E32C7
:103640002000FD0073236C232D322000FC008D230D
:1036500086238C322000FB00A723A0232D322000DC
:10366000FA00C123BA238C322000F900DB23D423D3
:103670002D322000F800F523EE234E322000F70013
:103680000F240824AB322000F600292422244E32D5
:103690002000F50042243C24AB322000F4006824D2
:1036A000622456242000F30078247324AB322000D7
:1036B000F20091248C242D322000F100AA24A524AC
:1036C0008C322000F000CA24C524B9242000EF0069
:1036D000EE24E924DD242000EE000325FC24B03193
:1036E0002000ED001C251525B0312000EC0035250B
:1036F0002E25E8312000EB004D254725E83120003C
:10370000EA0063255D25E8312000E900792573256D
:10371000E8312000E80092258925E8312000E70003
:10372000AD25A4252D322000E600C425BF252D326D
:103730002000E500D825D2252D322000E400ED251B
:10374000E7252D322000E3000126FC252D328000E4
:10375000E10016260F26E8318000E1002B26252601
:10376000E8311000E00053264A2639261000DF0019
:1037700069266126E8311000DE0082267A262D3285
:103780001000DD0098269326A6261000DC00B9263E
:10379000B426A6261000DB00DA26D526C82610009F
:1037A000DA00F026E926B0311000D90009270227F7
:1037B000B0311000D80021271B27B0311000D700EE
:1037C00039273227B0311000D60051274B27E83176
:1037D0001000D50067276127E8311000D4007D274D
:1037E0007727E8311000D30092278D27E8311000A9
:1037F000D200A527A0272D321000D100B827B3276B
:103800002D320002D000CF27C627B0310002CF00F2
:10381000ED27E427B0310002CE000B280228B0319A
:103820000002CD0029282028B0310002CC00462813
:103830003D28B0310002CB005F285A28E831000251
:10384000CA0074286F28E8310002C900892884283A
:10385000E8310002C8009E289928E8310002C7001C
:10386000B228AD28E8310002C600C828C1288C3231
:103870000002C500DE28D8284E320002C400F62817
:10388000ED28AB320002C300112908294E32000294
:10389000C200292923294E320002C10041293829BA
:1038A000AB320002C0005F2956294E320002BF0031
:1038B00077297129AB320800BE00982993298629FF
:1038C0000800BD00B829B329A6290800BC00CE29EC
:1038D000C629382A0800BB00E829E029382A080050
:1038E000BA00012AFA29382A0800B900272A202A12
:1038F000122A0800B8004C2A462A382A0800B700C5
:10390000642A5C2AA72A0800B6007C2A772AA72AFC
:103910000800B500952A8D2AA72A0800B400BB2A02
:10392000B62AA72A0800B300D32ACB2AE92C08001C
:10393000B200EF2AE72AE92C0800B1000B2B032B79
:103940001D2B0800B000392B312B1D2B0800AF00B8
:10395000532B4B2B652B0800AE00812B792B652B4D
:103960000800AD009B2B932B7D2D0800AC00B42BE1
:10397000AC2B7D2D0800AB00CB2BC52B7D2D08007B
:10398000AA00E02BDA2B7D2D0800A900F72BEF2BE6
:103990007D2D0800A800102C082C7D2D0800A70004
:1039A000272C212C7D2D0800A6003C2C362C7D2DAB
:1039B0000800A500512C4B2C7D2D0800A400672C7D
:1039C000612C7D2D0800A3007D2C772C092D08008B
:1039D000A200A12C9B2C8F2C0800A100C42CBE2C73
:1039E000B22C0800A000DA2CD52C092D08009F006D
:1039F000FA2CF52CE92C08009E001A2D152D092D06
:103A000008009D003A2D352D292D08009C004E2DD3
:103A1000492D7D2D08009B006F2D6A2D5D2D08001E
:103A20009A00962D912D7D2D04009900AA2DA42D8C
:103A3000E83104009800C02DBA2DE8310400970049
:103A4000D62DD02DE83104009600EC2DE62DE8317E
:103A500004009500022EFC2D2D3204009400182E37
:103A6000122E2D32040093002F2E292EE83104004F
:103A70009200452E402E2D32040091005A2E542ED5
:103A8000E83104009000702E6A2E2D3204008F0061
:103A9000852E802E2D3204008E00992E942EC22F5A
:103AA00004008D00AD2EA82EC22F04008C00C12E64
:103AB000BC2EC22F04008B00D52ECF2E2D32040039
:103AC0008A00E92EE42E4E3204008900FC2EF72EE7
:103AD0004E3204008800102F0B2F2D320400870077
:103AE000382F302F1E2F04008600502F4B2F2D32E1
:103AF00004008500692F5F2FAB3204008400822F01
:103B00007D2F8C3204008300972F902FC22F04004A
:103B10008200AF2FA82F2D3204008100D52FCE2F89
:103B2000C22F04008000EE2FE82FAB3204007F008C
:103B30000430FE2F143004007E0026302030143074
:103B400004007D003B303630963004007C0050305D
:103B50004A30AB3204007B0072306C3060300400BD
:103B60007A0087308230AB3204007900A730A2306F
:103B7000963004007800C730C230B63004007700B9
:103B8000DC30D630AB3204007600F130EC30AB32B2
:103B90000400750011310C3100310400740026312D
:103BA0002031E831040073003B3135318C320400A0
:103BB00072005B3156314A31040071006F31693156
:103BC000AB320400700083317E31AB320000E6037B
:103BD00092319131E93204006F009E319731B0315A
:103BE00004006E00C231BC31B03104006D00D83128
:103BF000D231E83104006C00F931F431E8310400CD
:103C00006B000C3207322D3204006A001F321A3268
:103C10008C32040069003F3239322D3204006800D2
:103C20005F325A324E32040067007E3279326D3292
:103C3000040066009D3298328C3204006500BC326C
:103C4000B732AB3204006400DB32D632CA32000035
:103C5000E703EB32EA32E93200000D0001330033B2
:103C6000EC3200000C000B330A33093300000B0068
:103C70002C332B33173300000A00483347333333D8
:103C800000000900633362334E33000008008033C4
:103C90007F336E33000007009B339A338B33000071
:103CA0000600B533B433A13300000500D033CF3361
:103CB000BA3300000400F533F433DF3300000300AF
:103CC0001434133402340000020038343734223400
:103CD000000001005D345C34473420637265617418
:103CE000656400536176696E672052616E646F6D22
:103CF000204461746100436865636B696E673A20B4
:103D00004D61726368205500436865636B696E6737
:103D10003A204D617263682059004E4D2000534394
:103D20002000504D200046656174757265733A201D
:103D30000050756C6C75707320656E61626C6564A3
:103D40000020444D500020524D5700546573746953
:103D50006E6720004372656174696E672000726E41
:103D6000642836353533362900726E64283430398C
:103D7000362900726E64283531322900726E64284B
:103D80003235362900726E642831362900726E642D
:103D900028342900726E6428322900636F756E74AE
:103DA0002D00636F756E742B00313031302E2E2E46
:103DB00000303130312E2E2E003C20020202020251
:103DC0000202020202020202020202203E00446FCC
:103DD0006E65202D20416761696E3F004167616912
:103DE0006E3F00207573002D2D002D2D00496E7340
:103DF000657274200041626F727465640043686983
:103E000070204F4B0043686970204641494C45443F
:103E10000056043A0056053A004C6F6F703A200085
:103E2000506173733A20002028003E20000E1111CB
:103E3000111F1111001F11101F11111E001111115E
:103E400011111F01000F050509111F11001F10108E
:103E50001E10101F00040E1515150E04001F111062
:103E600010101010001F111010101010001111135D
:103E700015191111000A041113151911001112144A
:103E800018141211000F05050505150900111B1561
:103E900015111111001111111F111111000E111125
:103EA0001111110E001F111111111111000000004C
:103EB00000000000001E11111E101010000E111045
:103EC0001010110E001F0404040404040011111149
:103ED0000A040810001E11111E11111E000000001E
:103EE00000000000001515150E1515150011111113
:103EF00019151519001515150E151515003E20007C
:103F000044656661756C747320726573746F726555
:103F10006400437573746F6D204368697073206427
:103F2000656C6574656400466163746F72792064C2
:103F3000656661756C74730044656C6574652043D7
:103F40007573746F6D204368697073004661737494
:103F5000206B6579207265702E202831293A200067
:103F60004368697020646574656374202831293A58
:103F70002000416C742E206D6F6465202830293A32
:103F80002000456E61626C65204265657073202873
:103F900031293A20004C6F6F707320286C6F67696D
:103FA0006329202830293A0052656D656D6265727B
:103FB0002074657374202830293A200053686F7785
:103FC000206665617475726573202830293A200077
:103FD000536B69702030784646202830293A2000FB
:103FE0005029524F4D2070616464696E67202830FB
:103FF000293A20004175746F2070756C6C757020C3
:104000002830293A20005029524F4D2070756C6C91
:104010007570202831293A20004452414D20707596
:104020006C6C7570202830293A20005352414D2085
:1040300070756C6C7570202831293A20004D6172C2
:1040400063682055202830293A004D61726368204A
:1040500059202830293A0052616E646F6D207465D2
:10406000737473202831293A20005374642E20740D
:1040700065737473202831293A00534420436172D8
:1040800064202830293A004578697420262053613D
:10409000766520436F6E66696700436F6E66696779
:1040A00075726174696F6E003E2000524F4D00447E
:1040B00052414D20005352414D2000437573746F9F
:1040C0006D200046696C652074696D657374616D5F
:1040D0007020736574202000416761696E3F003D68
:1040E0003E206E6F7420706F737369626C65203C44
:1040F0003D0053454C206F72204F4B3F0053454CC1
:104100002C204A554D50206F72204F4B3F00534595
:104110004C206F72204A554D503F003E4175746FE0
:10412000646574656374003E2031364B20436172D0
:104130007472696467652028463629003E20384B32
:1041400020436172747269646765202846382900CB
:104150003E20344B20436172747269646765003E8F
:1041600020324B20436172747269646765003E536C
:10417000696E636C61697220514C003E4350432C60
:1041800041746172692053542C43313238003E53DC
:10419000696E636C61697220514C003E5A5820531D
:1041A0007065637472756D2C424243003E506C75AD
:1041B000732F342C4336342C4242432C4F726963A4
:1041C000003E436F6D6D6F646F7265003E476F74A4
:1041D000746C696562003E544939392F34412C5A58
:1041E000583830003E41746F6D2C43424D2C43369D
:1041F00034003E4170706C65204949003E436F6D4C
:104200006D6F646F7265003E3F003E646F206E6F9D
:10421000742075736520666F722032363038002046
:10422000483D00204C3D00204A554D5020746F20E1
:104230006465746563740053656C656374206163C1
:10424000746976652073746174657300426C616E85
:104250006B20636865636B20736B697070656400C5
:10426000456E64206F66206C697374004572726FCE
:1042700072206F70656E20726F6F74004275726E7F
:10428000696E6720000100020003000400050007BA
:104290000009000B000F001300160018001A001F81
:1042A000002700310034003B004F0063009F00B145
:1042B00000C700E4000A013F018F0114021F033F01
:1042C00006F106CF07ED086A0A7F0C9F0FD4143F52
:1042D0001F7F3E71451F4E48592A68FF7C3F9C5402
:1042E000D088347E3474346A34CC3B4E3CC434BA07
:1042F00034B034A6349C349234CC3B4E3C78356E8A
:104300003564355A35503546353C35323528351EFD
:104310003514350A350035F634EC34E234D834CE71
:1043200034CC3B4E3C18360E360436FA35F035E6C2
:1043300035DC35D235C835BE35B435AA35A035960D
:10434000358C358235CC3B4E3CA4369A3690368639
:10435000367C36723668365E3654364A36403636E5
:10436000362C362236CC3B4E3C44373A3730372653
:10437000371C3712370837FE36F436EA36E036D6C1
:1043800036CC36C236B836AE36CC3B4E3CF837EE7D
:1043900037E437DA37D037C637BC37B237A8379E5D
:1043A0003794378A37803776376C37623758374ECD
:1043B00037CC3B4E3CAC38A23898388E3884387AAB
:1043C00038703866385C38523848383E3834382AC5
:1043D00038203816380C380238CC3B4E3CBA39B04D
:1043E00039A6399C39923988397E3974396A3960ED
:1043F0003956394C39423938392E3924391A39105D
:10440000390639FC38F238E838DE38D438CA38C0D2
:1044100038B638CC3B4E3C1E3A143A0A3A003AF6CB
:1044200039EC39E239D839CE39C439CC3B4E3CD29B
:104430003AC83ABE3AB43AAA3AA03A963A8C3A8284
:104440003A783A6E3A643A5A3A503A463A3C3A32F4
:104450003A283ACC3B4E3CC23BB83BAE3BA43B9ADD
:104460003B903B863B7C3B723B683B5E3B543B4A0C
:104470003B403B363B2C3B223B183B0E3B043BFA7C
:104480003AF03AE63ADC3ACC3B4E3C443C3A3C30DB
:104490003C263C1C3C123C083CFE3BF43BEA3BE027
:1044A0003BD63BCC3B4E3CD03CC63CBC3CB23CA893
:1044B0003C9E3C943C8A3C803C763C6C3C623C5844
:1044C0003C4E3C000036346B2078203800313032CE
:1044D00034207820580031303234207820340035B0
:1044E00031322078205800353132207820340032A3
:1044F0003536207820580032353620782034003682
:10450000342078203800616C6C207A65726F00333B
:104510003220782038003930363131342D30332E86
:104520007538382028504C4129005035303000393A
:1045300030363131342D30322E7537382028504CFA
:104540004129003332343734342D30312E756536FD
:10455000202850324529003332343734342D30315D
:104560002E7565362028504C4129003332343734BB
:10457000352D30312E7565352028503245290043C0
:10458000424D2038323936003332343734352D300D
:10459000312E7565352028504C41290043424D206D
:1045A000377830003930363131342D30352E75378B
:1045B000352028504C41290043424D2036783000A8
:1045C0003930363131342D30342E75313820285081
:1045D0004C4129003235313634312D3033202850CA
:1045E000324529003235313634312D3033202850D0
:1045F0004C4129003235313634312D3033202850AA
:104600003245290031353531003235313634312DDE
:1046100030332028504C4129003235313634312D89
:10462000303220285032452900433131362F506C2A
:10463000757334003235313634312D303220285004
:104640004C4129003930363131342D30312E75311D
:10465000372028503245290043363400393036316E
:1046600031342D30312E7531372028504C412900FE
:10467000736720726F6D2F73686F756C64657273EA
:10468000206F66206769616E7473007A78383178BC
:10469000322F6D207265762E63007A783831783249
:1046A000207265762E63007A78383178322F6D204B
:1046B0007265762E62005A582D3831007A7838317A
:1046C0007832207265762E620037347878207365F0
:1046D000726965730037343138352062696E6172F2
:1046E0007920746F2042434400537065637472757F
:1046F0006D204861726C657175696E005A5820347E
:10470000384B20262044696167004170706C652039
:10471000506172616C6C656C204946003334312DF8
:104720003030353700303239362C3234342D303198
:1047300020524F4D34204400303239362C3234333D
:104740002D303120524F4D33204400303239362C39
:104750003234322D303120524F4D3220440030322D
:1047600039362C3234312D303120524F4D312044E6
:104770004500303239362C3034342D303220524F0F
:104780004D3400303239362C3034332D3032205213
:104790004F4D3300303239362C3034322D30322008
:1047A000524F4D320041636F726E20524953434F56
:1047B0005320332E313100303239362C3034312D04
:1047C000303220524F4D310048542D313038305A5C
:1047D0002F36340068743130383036340048542D68
:1047E000313038305A2053657269657320492F493A
:1047F00049006874313038307A00383273313233DE
:104800002E696331360074656C636F6D31300065FD
:104810006461736D622E69633333004D6963726F37
:10482000626565203136205374616E646172640084
:10483000656461736D612E69633331004174617227
:104840006920535445202F204D65676120535445FE
:1048500000746F7332303575730063313031363325
:10486000362D30303120286C6F7729004174617209
:104870006920535420544F5320312E3032204400AD
:10488000633130313633352D303031202868696757
:10489000682900636F32363033342028753429009C
:1048A000417461726920535420424F4F5400636F2A
:1048B0003236303335202875372900636F32363071
:1048C00033362028753429004174617269205354AD
:1048D00020424F4F5420555300636F3236303337E8
:1048E00020287537290041636F726E20456C65631F
:1048F00074726F6E00004171756172697573202862
:104900004E545343290061713220287532290033F7
:1049100034312D30323332612028524F4D3030291E
:10492000004170706C652049496773003334312D44
:1049300030313234612028524F4D303029004D50F3
:10494000532D31323730204669726D7761726500C0
:104950003630313235302D3534004F70656E534569
:1049600020332E312E3220524F4D20666F7220346C
:10497000384B20537065637472756D000034384B8A
:1049800020524F4D206279204A2E472E4861727383
:10499000746F6E2076302E3732000034384B205240
:1049A0004F4D206279204A2E472E48617273746FF2
:1049B0006E2076302E3734000034384B20524F4D65
:1049C000206279204A2E472E48617273746F6E20E0
:1049D00076302E3736000034384B20524F4D20624F
:1049E000792049616E20436F6C6C696572000034F8
:1049F000384B20524F4D2062792048656E6B206401
:104A0000652047726F6F7400005A585320524F4D03
:104A1000202844292031364B2F34384B00005A5877
:104A200053204D616C7927732050737963686F2030
:104A30005570677261646500005A5853204275735F
:104A400079536F66742076312E343000005A5853F3
:104A50002042757379536F66742076312E31380099
:104A6000005A582D38302041535A4D49432062791D
:104A700020432E4672617A6572204A6F686E736FAA
:104A80006E00005A585320547572626F20342E34D1
:104A900000005A585320547572626F20322E330032
:104AA000005A585320494445000053414D20436F5C
:104AB000757065205A585320656D756C6174696F07
:104AC0006E20524F4D0000486F6262697420466F3D
:104AD000727468000034384B20524F4D20666F725C
:104AE000204E6F726469630000494E56455320534F
:104AF0007065637472756D2034384B2B20284553D4
:104B0000290000524F4D2030005345204241534967
:104B10004320495620274275666679272076342E31
:104B2000312E3000524F4D203100446572627920A1
:104B30006465762028454E2920283132384B20657F
:104B40006469746F722900524F4D203000446572C1
:104B500062792064657620283132384B206564699B
:104B6000746F722900524F4D203000446572627993
:104B700020646576202834384B204241534943292C
:104B800000524F4D203100556E69706F6C62726932
:104B900074204B6F6D70757465722032303836201A
:104BA00028554B3230383629006D61696E20524FDE
:104BB0004D004C656E696E677261642034384B201D
:104BC000547572626F00002850542900544B3935D7
:104BD0000028455329002845532900544B393058A3
:104BE000206C61746572206D6F64656C0028505490
:104BF0002900544B393058002850542F4553290070
:104C0000446964616B74696B204D202831393930F7
:104C1000290000486F626269742054522D444F533A
:104C20000000524F4D204100486F6262697420536A
:104C30006861646F7700524F4D2042005A585320EC
:104C400052657669736564204553203132384B20B4
:104C5000283132384B20456469746F722900524FF5
:104C60004D2030003235323138302D303100413175
:104C700030303020426F6F742D524F4D003235323C
:104C80003137392D3031003135373120444F532001
:104C9000332E30003331303635342D30340041344A
:104CA000303931205265762034302E31330033399B
:104CB000313539322D303220285532303629003303
:104CC00039303238322D303720286F646429004162
:104CD000323632302F33302042494F5320526576DE
:104CE0002E37003339303238332D3037202865766F
:104CF000656E29003339303238322D303620285550
:104D0000342F55313032290041323632302F333092
:104D10002042494F53003339303238332D3036205A
:104D20002855352F55313033290033393032383258
:104D30002D3033202855313032290041323632307F
:104D40002042494F53003339303238332D3033202D
:104D5000285531303329003331383038332D303154
:104D6000202855333229204E4F003331383037391F
:104D70002D30312028553332292049540033313821
:104D80003038322D303120285533322920444B0021
:104D90004331323844204B65726E616C20524F4D66
:104DA00020312F34003331383038312D3031202844
:104DB0005533322920434800433132382042617351
:104DC000696320372C204D6F6E69746F722C2052EE
:104DD0004F4D20332F32003339303339332D3031BA
:104DE000202855333429004331323844204261733E
:104DF000696320372C20524F4D20322F330033313E
:104E0000383032322D3031202855333429004131A9
:104E10003036302048796472612042696F732032E5
:104E20002E3037003338303631392D303420285584
:104E300032322900413130363020487964726120A5
:104E400042696F7320322E303600333830363139B4
:104E50002D30332028553232290041313036302070
:104E600048796472612042696F7320322E303500B8
:104E70003338303631392D3032202855323229003E
:104E80004331323844435220444941474E4F534501
:104E9000003332353130392D313000433132382052
:104EA000426173696320372C204D6F6E69746F7295
:104EB0002C20524F4D2033204D6964646C650033C3
:104EC00031383031392D30332028553334292048BA
:104ED00049004331323820426173696320372C2006
:104EE000524F4D2032204D6964646C650033313877
:104EF0003031382D3033202855333329204C4F00A2
:104F00003332353137392D3031202855333229208D
:104F10004E4F00433132382F43363420426173699B
:104F200063264B65726E616C20524F4D2031003309
:104F300032353137362D3037202855333229204449
:104F40004B0043313238204B65726E616C20524FFA
:104F50004D34204D6964646C650033313830323033
:104F60002D30342028553335292055530033323520
:104F70003137372D3032202855333529204E4F0018
:104F80003332353136382D3032202855333529200B
:104F90004954003332353136362D303220285533DE
:104FA00035292046522F42003331353037382D30E5
:104FB000332028553335292044494E0033323531CA
:104FC00037322D30322028553335292043480043CD
:104FD000313238204B65726E616C20524F4D203457
:104FE000003332353137322D3031202855333529D1
:104FF00020434800433132382043617274204449D1
:1050000041474E4F5345003332353039392D303119
:10501000004336342F433132382042545820436104
:1050200072746469676520286F6C642076657229E4
:10503000003332353232312D303200433634204D98
:105040006167696320566F69636520524F4D003276
:1050500035313437362D303120285536290033325A
:10506000353031312D30312048490033323530313F
:10507000302D3032204C4F00706C757334204675E3
:105080006E6374696F6E2028332D706C75732D31CB
:1050900029204445003332353031302D3031204C19
:1050A0004F003331373036392D3031204C4F0070BE
:1050B0006C75733420436172746964676520436161
:1050C0006C632F506C7573003331373037302D30AF
:1050D00031204849003331383030342D31312050BF
:1050E000414C4700706C757334204B65726E616C77
:1050F000003331383033302D30312050414C20488E
:105100005520523100543131363030363A20433157
:105110003620537472616E6765204F6479737365CE
:1051200079003331373034332D303120285531294F
:1051300000543131363030353A2043313620417415
:105140006F6D6963204D697373696F6E003331371A
:105150003034322D303100543131363030343A2051
:105160004331362050697261746520416476656E02
:1051700074757265003331373034312D303100545D
:105180003131363030313A2043313620566964753A
:105190007A7A6C6573003331373035302D303220F8
:1051A00028553129003331373035322D3031202820
:1051B000553229003331373035312D3031202855E3
:1051C000312900543131323030313A2043313620E8
:1051D0005363726970742F506C75730033313730BC
:1051E00035312D30322028553129003830323350B6
:1051F0002F4D4D5031333631003332353332302D6F
:1052000030322028553134290034303232502028B1
:1052100062696469726563742E29003930313633EE
:10522000312D30320034303232204669726D776170
:105230007265003930313439302D303120285538FD
:10524000414229004D4158333530323A204D4158C2
:105250002043617274204A757069746572204C61D4
:105260006E64657220562E3032003332353335315C
:105270002D30322028553129004D415833343033F8
:105280003A204D41582043617274204B69636B6D25
:10529000616E20562E3033003332353336322D30A6
:1052A000322028553129004D4158333130323A20CF
:1052B0004D4158204D6178692D4261736963202406
:1052C00045302D4646003930313233312D303120D2
:1052D00028553229004D4158333130313A204D4163
:1052E00058204D696E6920426173696320244530FE
:1052F0002D4646003930313233332D303120285598
:105300003129004D4158333130323A204D41582037
:105310004D6178692D4261736963202438302D39DD
:1053200046003930313233302D3031202855312983
:1053300000433634204B65726E616C003332353079
:1053400031372D30322028553429205345005375EC
:105350007065725045542057617465726C6F6F2090
:1053600024452C2446003937303032302D3132205C
:1053700028553439290053757065725045542057AB
:10538000617465726C6F6F2024432C24440039379C
:10539000303031392D3132202855343829005375B9
:1053A0007065725045542057617465726C6F6F2040
:1053B00024412C2442003937303031382D3132200D
:1053C00028553437290050432042494F532030316B
:1053D0002F33302F3835003338303230342D3031E0
:1053E000432028553434290050432D492043686117
:1053F000726163746572003331383835352D303160
:1054000020285536392900343032322044494E00A4
:105410003332343736342D30310041323039304177
:10542000205A38302D4669726D77617265003339C4
:10543000303233302D303320285533362900333184
:10544000353039382D30312028553530290041325A
:105450003039304120426F6F740033313530393785
:105460002D30312028553531290033323530373849
:105470002D3032204E4F003332353137352D30321A
:1054800020444B00433132384420436861726163E9
:1054900074657220524F4D003331353037392D301D
:1054A000322044494E003332353137382D303120E7
:1054B0004E4F003332353136372D30312049542F9D
:1054C00046522F4245003332353137312D303120AD
:1054D0004553003332353137352D303120444B00C0
:1054E00043313238204368617261637465722052BF
:1054F0004F4D003332353137332D303120434800A2
:105500004331362F433131362F706C75733420425E
:1055100075726E496E003332353230312D303100C4
:10552000706C75733420444941470033323435324E
:10553000312D30322F3332353036322D3031004379
:10554000424D2D49492044494147003332343833D4
:10555000352D303100377830204B65726E616C200C
:1055600044494E003332343836362D3033003778E4
:1055700030204368617261637465722044494E0053
:105580003332343836372D3032003678302F377892
:1055900030204B65726E616C003930313234342DFD
:1055A000303442003930313234312D303441204CE6
:1055B0004F00363230204261736963203400393045
:1055C000313234302D3034204849003332343837CA
:1055D000382D3031204C4F005045542042617369C2
:1055E000632F4B65726E616C203400333234383770
:1055F000382D3032204849004D5053383031203555
:105600004A572D32003331343537332D30310033A2
:10561000303232003930313437322D3036003230CA
:1056200032322F323032332F5669736943616C63E3
:105630002D524F4D003930313437322D3034003255
:10564000303233003930313437322D303300433685
:105650003420436172742044494147003332343569
:1056600032382D3032005643323020446961672091
:105670004361727472696467650033323431373361
:105680002D30310037783020436861726163746572
:1056900072003930313233322D30320050455420CF
:1056A000456469742034203830204220383239363D
:1056B000204153434949003332343234332D3032A0
:1056C00042202855453829005045542045646974C6
:1056D00020342038302038323936204578656375DB
:1056E0006465736B0065786563756465736B5F38BB
:1056F000362D3032005045542045646974203420E2
:1057000038302038323936442044494E0033323460
:105710003234332D303320285545382900444F5337
:1057200020322E37204443003235313437342D3087
:10573000314200504554204564697420342038308B
:1057400020422043525443203530487A00393031CA
:105750003437342D303420285544372900504554EF
:1057600020456469742034203430204E2043525444
:1057700043203530487A00656469746F722028557B
:1057800044372900564943313131323A20564332A9
:1057900030204361727420494545452D3438380026
:1057A0003332353332392D30330050455420426185
:1057B000736963203320244638003930313434375C
:1057C0002D32362F33392D313920284837290050D2
:1057D00045542042617369632033202446300039E8
:1057E00030313434372D32352F33392D31382028AC
:1057F00048342900504554204261736963203320A6
:10580000244438003930313434372D32332F333992
:105810002D313620284836290050455420426173E6
:105820006963203320244430003930313434372D3B
:1058300032322F33392D3135202848322900504556
:105840005420426173696320332024433800393087
:10585000313434372D32312F33392D31342028482B
:105860003529005045542042617369632033202458
:105870004330003930313434372D32302F33392D25
:105880003133202848312900504554204368617243
:105890006163746572204A50003930313434372DD9
:1058A000313220284631302900005A696C6F670078
:1058B0005A363131360057323436350057323436A5
:1058C00034410057323435313241005732343235A9
:1058D00037005732343136005732324236354100C4
:1058E0005636324335313831303234005635334351
:1058F00032353641005574726F6E0055543632326F
:105900003537005550443632363400555044353121
:10591000303100555044343336340055504434331C
:105920003235370055504434333235360055504403
:105930003433313030300055504434323800555013
:1059400044343236005550443432350055504434D6
:1059500032340055504434323300555044343231DF
:1059600000555044343136340055504434313600FB
:1059700055504434313400555044343132353600BA
:105980005550443431303400555044343130005592
:10599000504434303800555044343036005550446B
:1059A000343033005550443430313600555044348F
:1059B000303000555044323238390055504432317D
:1059C0003439005550443231343700555044323167
:1059D0003134005550443230383900555042343259
:1059E0003900555042343237005550423431370077
:1059F000555042343039004E454300555042343002
:105A00003500554D363232353600554D363231304F
:105A1000323400554D363135313200554D36313244
:105A2000353600554D4300554D363131360055441D
:105A30003631343634005536353438440055363531
:105A40003136440055363236344400553632363419
:105A5000005A4D4400553632313600553631323514
:105A6000360055363130303000553235360055323B
:105A70003235440055323234440055323136340028
:105A800055323135440055323134440055323134C9
:105A90003800284444522900553230324400544DD5
:105AA00053343533322D58584E4C3400544D533402
:105AB0003533322D58584E4C3300544D5334343610
:105AC0003400544D533434313600544D5334323550
:105AD0003600544D533431363400544D5334313341
