:100000000C94F7010C9428020C9428020C942802FA
:100010000C9428020C9428020C9428020C942802B8
:100020000C9428020C9428020C9428020C942802A8
:100030000C9428020C9428020C9428020C94280298
:100040000C9428020C9428020C9428020C94280288
:100050000C9428020C9428020C9428020C94471348
:100060000C9428020C9428020C9428020C94280268
:100070000C9428020C9428020C9428020C94280258
:100080000C9428020C9428020C9428020C94280248
:100090000C9428020C9428020C9428020C94280238
:1000A0000C9428020C9428020C9428020C94280228
:1000B0000C9428020C9428020C9428020C94280218
:1000C0000C9428020C9428020C9428020C94280208
:1000D0000C9428020C9428020C9428020C942802F8
:1000E0000C9428020C9447150C94B40D0C94C60D76
:1000F0000C9447020C94EC140C94080E0C941415F8
:100100000C941C0E0C94240E0C9495110C94270E38
:100110000C942A0E0C94190E0C945F150C94711506
:100120000C94380E0C94BA0D0C9475150C94BF14E5
:100130000C949B140C9498110C9459150C94D31492
:100140000C94430E0C94210E0C949B110C944B15A3
:100150000C94B70D0C94460E0C9455150C94DD14AC
:100160000C9487150C9441150C9467150C94320E61
:100170000C94AB0D0C9491140C942D0E0C94230341
:100180000C94C00D0C94A5140C94400E0C94A50D69
:100190000C94130E0C9486150C94B7140C94AE0D9D
:1001A0000C9444020C947F150C948C140C94C91478
:1001B0000C946D150C9484140C94BD0D0C949B023E
:1001C0000C940A150C94A20D0C94A80D0C943417E1
:1001D0000C944F150C94350E0C941E150C9483152D
:1001E0000C943B0E0C9448020C94DB030C94770D9A
:1001F0000C941D160C94B10D0C94C30D0C94631546
:100200000C94AF140C94F6140C9400150C947B15FC
:100210000C94160E0C949F0D0C9423130C94C90D82
:100220000C944B0253656C656374656420005365E0
:100230006C6563746564200053656C6674746573E3
:1002400074204F4B0053656C66747465737420663C
:1002500061696C65640053656C6674657374696E7E
:1002600067204C4F572F484947480053656C6674C8
:10027000657374696E67205673730053656C66749A
:10028000657374696E67205664640053656C6674A8
:10029000657374696E6720566363000000000A0B83
:1002A0000C00000000000D0E0F0900000000080403
:1002B00005060000000000001112130000000000FD
:1002C000000000000000000000000000000000002E
:1002D000000000000000000000000000000000001E
:1002E000000000000000000000000000000000000E
:1002F000030102040810204080010204081020407D
:100300000102040810204080800810010204081037
:1003100020408001020408102040800102010204F4
:100320000810204080010204081020400480402072
:10033000100804020180010204081020408001021C
:100340000408102040802005050505050505050861
:10035000080808080808020202020202020208074E
:10036000070C0C0C0C0C0C0C0C040404040404040A
:1003700004070703030303030303030A0A0A0A0A21
:100380000A0A0701010101010101010A0606060628
:10039000060606060B0B0B0B0B0B0B0B07000020C6
:1003A000002300260029002C002F0032000001004D
:1003B0000003010601090100002200250028002B8E
:1003C000002E003100340002010000050108010B7D
:1003D0000100002100240027002A002D00300033F6
:1003E0000001010000040107010A0100460E11246A
:1003F0001FBECFEFD1E2DEBFCDBF00E00CBF15E0E6
:10040000A0E0B2E0E4EEFFE200E00BBF02C0079024
:100410000D92A431B107D9F725E0A4E1B5E001C000
:100420001D92A137B207E1F711E0C7EFD1E000E07C
:1004300006C021970109802FFE010E949C17C63F2C
:10044000D10780E00807A9F70E9437170C94F0172E
:100450000C9400006BBFFA01DC0102C007900D9202
:1004600021503040D8F70895FA016BBFDC012150CC
:10047000304048F007900D920020C9F701C01D924E
:1004800021503040E0F7089590E080E0089508950D
:100490008DEF9FEF0895FC0187A18F3FC1F190A5DB
:1004A0009E3F51F4662331F060E00E948A1590E08F
:1004B00080E0089561E0F9CF2DEF280F233070F030
:1004C00025EF280F243050F02DEE280F243030F087
:1004D00023EE280F233010F0853569F470E0913059
:1004E00019F40E944C14E3CF2FEF30E0A901461B12
:1004F000570BBA01F6CF662331F0913031F461E049
:100500000E94C615D4CF9923D1F360E0F9CF8DEFC7
:100510009FEF0895CF93DF93EC0161E088810E9403
:10052000C61581E090E00E94FB1360E08881DF91B6
:10053000CF910C94C615EF92FF921F93CF93DF9348
:10054000EC0161E088A10E948A1589A18F3F39F0F2
:1005500061E00E948A1560E089A10E94C61561E0F1
:100560008AA10E948A1560E08AA10E94C61561E0F6
:100570008BA10E948A1561E08CA10E948A1561E01E
:100580008DA10E948A1561E08EA10E948A151FA18B
:100590001F3F61F188A5813029F560E0812F0E941D
:1005A000C61560E0812F0E948A1561E0812F0E94AC
:1005B0008A1561E0812F0E94C61585E090E00E94B7
:1005C000FB13812F0E94F4157C0160E0812F0E94B3
:1005D000C61560E0812F0E948A15EA94EF2811F079
:1005E0008EEF88A761E08FA10E948A1590E080E0DD
:1005F000DF91CF911F91FF90EF9008958F929F927E
:10060000AF92BF92CF92DF92EF92FF92FC01C48C27
:10061000D58CE68CF78C808C918CA28CB38C0E944C
:100620009D13681979098A099B096C157D058E054A
:100630009F05A8F3FF90EF90DF90CF90BF90AF9011
:100640009F908F9008950F931F93CF93DF93FC019A
:1006500021A12F3F09F488C08B01EC010E94FE020A
:1006600060E08BA10E948A1560E08CA10E948A152F
:1006700060E08DA10E948A1560E08EA10E948A151B
:1006800061E00130110509F060E088A10E94C61503
:1006900061E089A10E94C61561E08AA10E94C61589
:1006A00081E090E00E94FB138BA10E94F41510E101
:1006B000019709F010E08CA10E94F415019709F44C
:1006C00010628DA10E94F415019709F410648EA1A7
:1006D0000E94F415019709F4106860E08AA10E9455
:1006E000C61581E090E00E94FB1361E08AA10E94A0
:1006F000C61581E090E00E94FB138BA10E94F415C7
:10070000019709F411608CA10E94F415019709F476
:1007100012608DA10E94F415019709F414608EA156
:100720000E94F415019709F4186060E08AA10E9404
:10073000C61561E08BA10E948A1561E08CA10E9420
:100740008A1561E08DA10E948A1561E08EA10E9448
:100750008A1560E089A10E94C615812F90E0DF9183
:10076000CF911F910F9108958DEF9FEFF8CF0F93C9
:100770001F93CF938C01C62FFC0183A161E0C0FFC2
:1007800060E00E94C615F80184A161E0C1FF60E04D
:100790000E94C615F80185A161E0C2FF60E00E94D9
:1007A000C615F80186A161E0C3FF60E0CF911F91FB
:1007B0000F910C94C615CF92DF92EF92FF921F9388
:1007C000CF93DF93EC016B01142F88A161E091E0DE
:1007D000C916D10409F060E00E94C615612F70E0CF
:1007E00084E0759567958A95E1F7CE010E94B7037D
:1007F000CE010E94FE027E0182E2E80EF11CC701DA
:100800000E948A0292E0C916D10441F0612F6F70F4
:10081000CE010E94B703C7010E948A0290E080E0E7
:10082000DF91CF911F91FF90EF90DF90CF900895CF
:10083000CF93DF93C4E8D2E0219682E0C53AD8078F
:1008400091F4C3E6D2E082E0C338D80789F0898109
:1008500087FD07C061E00E948A1560E089810E94DF
:10086000C6152196F0CF60E088810E948A15E4CFFA
:1008700060E084E10E94C615C2E4D2E082E0C236A4
:10088000D807C1F4C1E2D2E082E0C134D807F1F464
:10089000C0E0D2E082E0C032D80721F1898187FD33
:1008A00007C061E00E948A1560E089810E94C61538
:1008B0002196F0CF898187FD07C061E00E948A15EB
:1008C00061E089810E94C6152196D8CF898187FD74
:1008D00007C061E00E948A1560E089810E94C61508
:1008E0002196D2CF64E670E080E090E0DF91CF9176
:1008F0000C94C2131F93CF93DF93CDB7DEB76597E8
:100900000FB6F894DEBF0FBECDBF182F44E150E004
:1009100060E270E0CE0101960E94DB171D8A412F34
:1009200060E08FE395E00E943912BE016F5F7F4F58
:100930008FE395E00E947D1665960FB6F894DEBFB2
:100940000FBECDBFDF91CF911F9108950F931F93DD
:10095000CF93DF93D62FC42F122F6FEF680F43E092
:100960008FE395E00E9439126CE3112349F06EE3A6
:10097000002331F0DD2361F068E5C11101C061E3BE
:100980008FE395E0DF91CF911F910F910C94851625
:1009900060E3C111F5CF6DE2F3CFCF92DF92EF921A
:1009A000FF920F931F93CF93DF93EC0141E060E040
:1009B0008FE395E00E94391221967E0101E010E05C
:1009C0009AE0C92ED12CF70181917F0187FD0AC0E1
:1009D000C801B6010E9447174AE050E08FE395E056
:1009E0000E9420170F5F1F4F0132110561F742E08F
:1009F00060E08FE395E00E94391201E010E08AE0A8
:100A0000E82EF12C899187FD0BC0C801B7010E9427
:100A100047174AE050E0BC018FE395E00E942017A1
:100A20000F5F1F4F0132110569F7DF91CF911F91C1
:100A30000F91FF90EF90DF90CF9008950F931F9349
:100A4000CF93DF93EC0143E060E08FE395E00E94F9
:100A500039128E010F5F1F4FA196F80181918F010E
:100A600087FD05C06EE28FE395E00E9485160C17A6
:100A70001D0799F7DF91CF911F910F9108952F9244
:100A80003F924F925F926F927F928F929F92AF921E
:100A9000BF92CF92DF92EF92FF920F931F93CF936B
:100AA000DF9300D01F921F92CDB7DEB74C010E949A
:100AB000180464E670E080E090E00E94C2138FE3C7
:100AC00095E00E94361240E060E08FE395E00E94DE
:100AD00039128114910409F00AC16BE872E08FE3C6
:100AE00095E00E94591682E492E00E94CD0482E4CF
:100AF00092E00E941E0561E084E10E94C615F2E4C6
:100B0000AF2EF2E0BF2EA4E8EA2EA2E0FA2E81E09A
:100B100090E09D838C8344244394512CCC24C39433
:100B2000D12CF501818187FD8DC060E0F7018181C5
:100B30000E948A1561E087E00E94C61560E0F50119
:100B400081810E94C61564E170E080E090E00E941F
:100B5000C213F70181810E94F4151C01F1E0CF1648
:100B6000D10481F060E0F70180810E948A15F701CD
:100B700080810E94F415182FF0E2CF16D10419F4E9
:100B800019820BC010E060E0F70182810E948A1593
:100B9000F70182810E94F415898360E087E00E945A
:100BA000C61561E0F50181810E94C61561E0F7017B
:100BB00081810E948A1560E0F70181810E94C6153B
:100BC0006AE070E080E090E00E94C21360E0F7010C
:100BD00081810E948A1562E370E080E090E00E94CB
:100BE000C213F70181810E94F4153C01C2010196F4
:100BF0009B838A8301E09981911100E021E011112A
:100C000020E041E06114710409F040E0622DC2016E
:100C10000E94A604232809F467C06114710409F036
:100C200063C0111105C0E981E11102C06C807D80B3
:100C300062E370E080E090E00E94C2137D826C82EB
:100C40004A805B80FFEFCF1ADF0A8FEFA81AB80A3D
:100C50009FEFE91AF90AE1E2CE16D10409F061CF5B
:100C600060E084E10E94C6156AEF70E080E090E0E9
:100C70000E94C2130E941804F3E08F16910409F039
:100C8000D9C191E1492E512C2AE0222E312C8FE33B
:100C900095E00E94361240E060E08FE395E00E940C
:100CA000391266E572E08FE395E00E94591641E043
:100CB00060E08FE395E00E943912720180E1E81A4A
:100CC000F1086701C414D50409F422C1C601B101B9
:100CD0000E9447174AE050E08FE395E00E942017FA
:100CE0009FEFC91AD90AEECF712C612CA1CFF1E088
:100CF0008F16910409F080C06BE772E08FE395E0F6
:100D00000E94591681E292E00E94CD0481E292E0B5
:100D10000E941E0561E2E62E62E0F62E74E8C72E00
:100D200072E0D72E81E090E09D838C8366246394EB
:100D3000712C91E4E91692E0F90609F495CFF701D8
:100D4000818187FD52C060E0F60181810E948A1591
:100D500061E087E00E94C61561E0F70181810E9491
:100D6000C61564E170E080E090E00E94C213F601D5
:100D700081810E94F4155C0160E087E00E94C61545
:100D800061E0F70181810E948A1560E0F7018181AD
:100D90000E94C61564E170E080E090E00E94C213FA
:100DA000F60181810E94F4152C011301FFEF2F1A27
:100DB0003F0A41E0892B09F040E001E021E06A2D83
:100DC000C3010E94A604A114B10431F0AC80BD801F
:100DD000452811F0B12CA12C64E670E080E090E091
:100DE0000E94C213BD82AC8231018FEFE81AF80A6B
:100DF0009FEFC91AD90A9DCFE2E08E16910409F03F
:100E000082C06BE672E08FE395E00E94591683E69C
:100E100092E00E94CD0483E692E00E941E0533E634
:100E2000C32E32E0D32E44E8E42E42E0F42E81E0DB
:100E300090E09D838C8366246394712C93E8C9169B
:100E400092E0D90609F410CFF601818187FD51C0E7
:100E500062E0F70181810E948A1561E087E00E94CB
:100E6000C61561E0F60181810E94C61564E170E05B
:100E700080E090E00E94C213F70181810E94F41586
:100E80002C0160E087E00E94C61560E0F6018181D8
:100E90000E94C61564E170E080E090E00E94C213F9
:100EA000F70181810E94F4155C0160E0F701818106
:100EB0000E948A151301FFEF2F1A3F0A41E04114E7
:100EC000510409F040E001E021E06A2DC3010E94D5
:100ED000A6044528A9F4A114B10411F0AC80BD808A
:100EE00064E670E080E090E00E94C213BD82AC82B4
:100EF00031018FEFC81AD80A9FEFE91AF90A9ECF7D
:100F0000B12CA12CEDCFE1E0F0E0FD83EC83B2CE7B
:100F100042E060E08FE395E00E943912CE14DF04D6
:100F200079F0C701B1010E9447174AE050E0BC01C7
:100F30008FE395E00E942017EFEFEE1AFE0AEECF46
:100F400043E060E08FE395E00E94391201E110E098
:100F50000150110909F0A3C0C2018D589D4F7C01B9
:100F600066246394712C60E0F70181810E948A15E8
:100F700061E087E00E94C61564E170E080E090E0E7
:100F80000E94C213F70181810E94F4155C0160E0A8
:100F900087E00E94C61562E0F70181810E948A15F0
:100FA00061E087E00E94C61564E170E080E090E0B7
:100FB0000E94C213F70181810E94F4156C0160E068
:100FC00087E00E94C61560E0F70181810E948A15C2
:100FD0004301FFEF8F1A9F0A41E0A114B10409F009
:100FE00040E001E021E06C2DC3010E94A604AB2883
:100FF00009F05BC0CD2809F458C064E670E080E0D9
:1010000090E00E94C2138FEFE81AF80A340191E1D0
:101010008916910409F0A7CF6AEF70E080E090E0B4
:101020000E94C213E0E14E0E511CF1E34F16510431
:1010300009F02DCE80E00E947A0440E060E08FE36A
:1010400095E00E9439128C819D81892B89F565E498
:1010500072E08FE395E00E94591681E090E00E94D3
:101060005B1168EE73E080E090E00E94C21343E001
:101070006BE08FE395E00E94391261E273E08FE349
:1010800095E00E947D168BE00E94F415892BC9F42F
:101090006AEF70E080E090E00E94C213F4CF6EE24D
:1010A0008FE395E00E94851653CF1D821C82A5CF49
:1010B00068E372E08FE395E00E94591682E090E0C9
:1010C000CECF90E080E00F900F900F900F900F9098
:1010D000DF91CF911F910F91FF90EF90DF90CF9014
:1010E000BF90AF909F908F907F906F905F904F9048
:1010F0003F902F900C945B11CF92DF92EF92FF9272
:101100000F931F93CF93DF93EC010E941804C2301A
:10111000D10509F48AC00CF078C0209709F47FC08B
:10112000C130D10509F47EC08FE395E00E943612EC
:1011300040E060E08FE395E00E94391267EA72E0D8
:101140008FE395E00E947D16C230D10509F481C07D
:101150000CF071C06BE274E0C130D10509F474C0C9
:1011600041E060E08FE395E00E943912C8010E94DF
:10117000CD04C130D10521F461E084E10E94C6159F
:101180000F5F1F4F84E8E82E82E0F82ECC24C39432
:10119000D12CF80181918F0187FD0EC060E0F7012D
:1011A00081810E948A15C130D10509F46CC00CF010
:1011B00056C0209709F45CC0FFEFCF1ADF0A8FEF0B
:1011C000E81AF80AE1E2CE16D10419F768EE73E0E6
:1011D00080E090E00E94C21343E06AE08FE395E074
:1011E0000E94391260E273E08FE395E00E947D1661
:1011F0008BE00E94F415892B09F04AC06AEF70E079
:1012000080E090E00E94C213F3CFC330D10581F09B
:10121000C430D10509F088CF00E012E085CF04E8A2
:1012200012E082CF02E412E07FCF03E612E07CCF2F
:1012300001E212E079CFC330D10571F06FE474E0C0
:10124000C430D10509F08CCF8FE395E00E947D1664
:1012500087CF67E374E0F8CF63E474E0F5CF61E033
:10126000F8013197C530D1050CF0A6CF808108C0B8
:1012700061E0F70181810E948A1561E0F7018181B7
:101280000E94C61599CF60E0F601EE5BFD4FEECFF0
:1012900090E080E00E945B11DF91CF911F910F9150
:1012A000FF90EF90DF90CF900C941804EF92FF9294
:1012B0000F931F93CF93DF93EC010E9418048FE3E9
:1012C00095E00E94361240E060E08FE395E00E94D6
:1012D000391265EB72E08FE395E00E947D1620974E
:1012E00009F456C0C130D10509F476C041E060E090
:1012F0008FE395E00E94391262EC72E08FE395E093
:101300000E947D1642E060E08FE395E00E94391272
:1013100064ED72E08FE395E00E947D1643E060E0AB
:101320008FE395E00E94391268EE72E08FE395E05A
:101330000E947D1643E060E08FE395E00E94391241
:1013400085E8E82E82E0F82E10E000E00F5F1F4FE6
:10135000F70181917F010E94F415209709F05DC08B
:10136000892B09F461C00032110581F780E00E94E9
:101370009510843009F066C090E080E00E945B1117
:10138000DF91CF911F910F91FF90EF900C94180473
:101390006FE574E08FE395E00E947D1605E812E0AA
:1013A00095EAE92E92E0F92E62E0F80181918F0131
:1013B0000E948A15E016F106B9F741E060E08FE37C
:1013C00095E00E94391262EC72E08FE395E00E9492
:1013D0007D1667E374E092CF6FE674E08FE395E0EB
:1013E0000E947D1605E812E060E0F80181918F010E
:1013F0000E948A15F2E0053A1F07B1F741E060E06C
:101400008FE395E00E94391262EC72E08FE395E081
:101410000E947D166BE274E071CFC130D10509F0F6
:10142000A2CF892B09F49FCF4AE050E0B8018FE3A7
:1014300095E00E9420176BEF72E08FE395E00E9429
:101440007D1691CF64E670E080E090E00E94C213C8
:1014500065CFCF92DF92EF92FF920F931F93CF93BE
:10146000DF93EC010E941804C230D10509F44FC08B
:10147000CCF5209709F441C0C130D10509F442C030
:101480008FE395E00E94361240E060E08FE395E044
:101490000E9439126DEF72E08FE395E00E947D1695
:1014A000C230D10509F44DC0E4F5209709F446C0D7
:1014B0006BE274E0C130D105E1F141E060E08FE31F
:1014C00095E00E94391201E010E06701C00ED11EC4
:1014D000F601808187FF3BC00F5F1F4F013211056E
:1014E000A4F3F1CFC330D105B9F0C430D10541F632
:1014F00080E0E82E82E0F82EC3CF44E8E42E42E0FC
:10150000F42EBECF32E4E32E32E0F32EB9CF23E641
:10151000E22E22E0F22EB4CF91E2E92E92E0F92EF3
:10152000AFCFC330D10581F06FE474E0C430D10592
:1015300021F68FE395E00E947D16BFCF64ED73E046
:10154000F8CF67E374E0F5CF63E474E0F2CF41E0F5
:1015500060E08FE395E00E9439126CE073E08FE366
:1015600095E00E947D164AE050E0B8018FE395E0D7
:101570000E9420176BEF72E08FE395E00E947D16CA
:1015800043E060E08FE395E00E94391266E173E08A
:101590008FE395E00E947D16C130D10551F1CCF466
:1015A0002097E9F081E00E949510813071F590E07C
:1015B00080E00E945B110E9418040F5F1F4F0132F0
:1015C00011059CF56AEF70E080E090E00E94C21384
:1015D0007CCFC530D10534F761E0F60112C061E07F
:1015E000C8018C579D4F6C01FC0180810E948A15B7
:1015F000F3CF61E084E10E94C61560E0F801EE5B84
:10160000FD4F80810E94C615CDCF8430D9F690E081
:1016100080E00E945B11DF91CF911F910F91FF90AD
:10162000EF90DF90CF900C94180401E010E0CACF47
:101630004F925F926F927F928F929F92AF92BF92E2
:10164000CF92DF92EF92FF92CF93DF9300D01F9261
:10165000CDB7DEB78FE395E00E94361240E060E040
:101660008FE395E00E9439126BE273E08FE395E01F
:101670000E947D160E9491136B017C0180EC96EC18
:10168000ADE2B0E03FB7F894209105012E7F2093A2
:1016900005013FBF4798469845984498439842981B
:1016A00041984098A1980197A109B10959F70E9462
:1016B00091132B013C014C185D086E087F080E94B5
:1016C00091136B017C0180EC96ECADE2B0E02091CF
:1016D00004012160209304013F9A3E9A3D9A3C9A6E
:1016E0003B9A3A9A399A389A999A209105012E7F15
:1016F0002093050147984698459844984398429806
:1017000041984098A1980197A109B10901F70E9459
:1017100091134B015C018C189D08AE08BF080E9414
:1017200091136B017C0180EC96ECADE2B0E03FEFF1
:1017300027B137B928B12B6428B90197A109B1099C
:10174000B9F70E9491139B01AC012C193D094E0978
:101750005F0929833A834B835C8341E060E08FE338
:1017600095E00E9439126AE373E08FE395E00E94EE
:101770007D1688EEC82E83E0D82EE12CF12CC30113
:10178000B201A70196010E945B17BA01A9012AE0E4
:1017900030E08FE395E00E9427176AE473E08FE35F
:1017A00095E00E947D16C501B401A70196010E9433
:1017B0005B17BA01A9012AE030E08FE395E00E94AF
:1017C000271769E374E08FE395E00E947D1642E0FD
:1017D00060E08FE395E00E9439126DE473E08FE3DF
:1017E00095E00E947D1669817A818B819C81A70199
:1017F00096010E945B17BA01A9012AE030E08FE34D
:1018000095E00E94271769E374E08FE395E00E945A
:101810007D1643E06AE08FE395E00E94391260E2B2
:1018200073E08FE395E00E947D1668EE73E080E040
:1018300090E00E94C2138BE00E94F415892B29F4DA
:101840006AEF70E080E090E0F4CF90E080E00E94EA
:101850005B118FEF9FEF9093A6028093A5020F90EC
:101860000F900F900F90DF91CF91FF90EF90DF904E
:10187000CF90BF90AF909F908F907F906F905F9030
:101880004F900895CF93DF9361E084E10E948A1521
:1018900060E084E10E94C6150E94851061E087E047
:1018A0000E948A1561E085E30E948A15C8E0D0E0B5
:1018B00061E087E00E94C6156DE770E080E090E08F
:1018C0000E94C21360E087E00E94C6156DE770E0D9
:1018D00080E090E00E94C213219751F720E044E09D
:1018E00064E18FE395E00E9468128FE395E00E9427
:1018F000361240E060E08FE395E00E9439126DE51A
:1019000073E08FE395E00E947D1660E28FE395E03F
:101910000E9485166DE673E08FE395E00E947D16C8
:1019200041E060E08FE395E00E94391262E773E0E6
:101930008FE395E00E947D160E94180460ED77E029
:1019400080E090E0DF91CF910C94C213EF92FF9270
:101950001F93CF93DF938FE395E00E94361240E010
:1019600060E08FE395E00E9439126EE272E08FE34F
:1019700095E00E9459166AEF70E080E090E00E94C6
:10198000C213F12CE12C8FE395E00E94361240E067
:1019900060E08FE395E00E94391264E272E08FE329
:1019A00095E00E94591641E060E08FE395E00E94C7
:1019B0003912C7010E94610EBC018FE395E00E94BD
:1019C0007D16E70181E00E9495108130A9F490E036
:1019D00080E00E945B112196CE010E94610EFC0105
:1019E0008081811102C0D0E0C0E010E029C0EC1677
:1019F000FD0641F37E01C7CF853079F490E080E0A9
:101A00000E945B11CE010E94610EFC01808188233F
:101A100011F02196F7CF2197E8CF823031F7CE0130
:101A20000E94610E44E050E0BC0186E293E00E9417
:101A3000E217892B99F490E080E00E945B1111E09D
:101A400068EC70E080E090E00E94C213112379F20C
:101A5000DF91CF911F91FF90EF900895CE010E94EA
:101A6000A30E0E94DA0EC1CF809114059091150546
:101A70002091A5023091A6028217930709F43DC078
:101A80009093A6028093A5028FE395E00E94361200
:101A900040E060E08FE395E00E94391264E873E073
:101AA0008FE395E00E947D1641E060E08FE395E0D2
:101AB0000E943912E0911405F0911505E031F1050D
:101AC000E0F48827E959F24F8F4F0C949C17770D5B
:101AD0009F0DA20DA50DA80DAB0DAE0DB10DB40D52
:101AE000B70DBA0DBD0DC00DC30DC60DC90D6DE806
:101AF00073E08FE395E00E947D1681E00E949510CF
:101B0000873009F049C090E080E00E945B110E949C
:101B1000A60C10921505109214058FEF9FEF90936D
:101B2000A6028093A5026AEF70E080E090E00E9438
:101B3000C2136AEF70E080E090E00C94C2136AE98F
:101B400073E0D7CF67EA73E0D4CF64EB73E0D1CF13
:101B500066EC73E0CECF6BED73E0CBCF6DEE73E050
:101B6000C8CF6FEF73E0C5CF61E174E0C2CF63E22D
:101B700074E0BFCF6FE274E0BCCF6BE374E0B9CF29
:101B800067E474E0B6CF63E574E0B3CF63E674E076
:101B9000B0CF64E774E0ADCF8130B1F490E080E085
:101BA0000E945B118091140590911505019680317A
:101BB00091052CF49093150580931405BACF1092DB
:101BC000150510921405B5CF823009F0B2CF90E020
:101BD00080E00E945B11E0911405F0911505E03161
:101BE000F105D0F48827E850F24F8F4F0C949C17E2
:101BF000080E130E160E190E1C0E210E240E270EA3
:101C00002A0E2D0E320E350E380E3B0E400E430EB0
:101C100090E080E00E943F058FEF9FEF9093A60237
:101C20008093A50286CF81E090E0F4CF82E090E03F
:101C3000F1CF83E090E0EECF90E080E00E94290AAF
:101C4000EBCF81E090E0FACF82E090E0F7CF83E045
:101C500090E0F4CF84E090E0F1CF81E090E00E944A
:101C60007C08DACF82E090E0FACF83E090E0F7CF13
:101C700084E090E0F4CF90E080E00E945609CCCF61
:101C800081E090E0FACF0E94180BC6CF8FE395E079
:101C90000E94C911EFE3F5E082E894E0918380832C
:101CA00089E080A388E082A38FEF81A391E593A3CD
:101CB00092E594A393E595A394E596A387A380A7C3
:101CC0000895CF92DF92EF92FF92CF93DF9340E09F
:101CD00050E061E077279C01220F331FC901330FC9
:101CE000AA0BBB0B840F951FA61FB71F6C017D01AC
:101CF000CC24DD24FF24ABBFFC0187919691B70172
:101D0000A601480F591F611D711D24E030E086E1D6
:101D100095E00E942A02C6E1D5E04881598170E031
:101D200060E04C295D296E297F2924E130E0CE0155
:101D30000E9434021C8ACE01DF91CF91FF90EF9078
:101D4000DF90CF900895CF92DF92EF92FF9240E024
:101D500050E061E077279C01220F331FC901330F48
:101D6000AA0BBB0B840F951FA61FB71F6C017D012B
:101D7000CC24DD24FF24ABBFFC0187919691B701F1
:101D8000A601480F591F611D711D24E030E086E156
:101D900095E00E942A02609118057091190590E063
:101DA00080E06C297D298E299F29FF90EF90DF909C
:101DB000CF9008953F924F925F926F927F928F9251
:101DC0009F92AF92BF92CF92DF92EF92FF920F93CA
:101DD0001F93CF93DF9300D000D000D01F92CDB7D8
:101DE000DEB78BBFFB0127912B013C013FEF431A6C
:101DF000530A630A730A2A3309F030C06BBEF2013A
:101E00002791243609F07EC06B017C0153E0C50E9A
:101E1000D11CE11CF11C30E020E0AAE0EBBEF60191
:101E20004791260137018FEF481A580A680A780A45
:101E30004033B8F0EBBEF60147914A3390F4A29FCD
:101E4000A001A39F500D1124EBBEF6012791205352
:101E5000330B240F351F73016201E0CFC301B201C0
:101E6000C0CF1216130614F024E030E02D836BBEB1
:101E7000F20187918F3609F04BC0D301C20102965F
:101E8000A11DB11DABBFFC012791A22FA353BB0B1A
:101E9000159708F03AC020532A8724E0420E511CBF
:101EA000611C711C6BBEF20187912FE330E082361A
:101EB00009F031C0D301C2010296A11DB11D30E06D
:101EC00020E06AE0ABBFFC0147912C013D015FEFD0
:101ED000451A550A650A750A4033E8F0ABBFFC01A4
:101EE00047914A33C0F4629FA001639F500D1124B3
:101EF000ABBFFC0127912053330B240F351FD301B7
:101F0000C201E0CF94E09D83B2CFB6E0BA87C5CFDF
:101F100036E03A87C7CF032E000C440B550B60E622
:101F20007AEE80E090E00E947D17DA01C90122E09C
:101F3000880F991FAA1FBB1F2A95D1F789839A83FF
:101F4000AB83BC833AE0332E9D81892F90E0B0E0D3
:101F5000A0E08D839E83AF83B8870CE06BBEF20157
:101F60008791882309F4B9C030E020E06BBEF2010C
:101F7000879173016201AFEFCA1ADA0AEA0AFA0A14
:101F8000803328F06BBEF20187918A3360F021150F
:101F90003105C1F469817A818B819C812D813E81DB
:101FA0004F81588517C0329EC001339E900D112479
:101FB0006BBEF20127912053330B280F391F2601E6
:101FC0003701D4CF032E000C440B550B69817A8165
:101FD0008B819C810E947D1749015A016BBEF201E1
:101FE00087918156873008F074C0E82FF0E0EC56F6
:101FF000FB4FB081B987EBBEF6018791833251F474
:1020000029852F5F29877301620132E0C30ED11C3D
:10201000E11CF11CEBBEF60187918E3289F4C501FB
:10202000B40122E030E040E050E00E947D17820ED3
:10203000931EA41EB51E5FEFC51AD50AE50AF50A60
:10204000EBBEF6018791803308F445C0EBBEF60184
:1020500087918A3308F03FC0EBBEF6011791105309
:102060008FEFC81AD80AE80AF80AEBBEF601879182
:102070008C3229F49FEFC91AD90AE90AF90AA9850D
:10208000C501B401AA2301F161E087E00E94C615F1
:10209000212F2450330B029FF001039FF00D1124D8
:1020A0003985E30FF11DEE0FFF1FE556FB4F6081F1
:1020B0007181C4010E94021160E087E00E94C61590
:1020C00064E170E080E090E00E94C21326013701D5
:1020D00045CF198690CF1A85C8CF2A960FB6F894A7
:1020E000DEBF0FBECDBFDF91CF911F910F91FF904B
:1020F000EF90DF90CF90BF90AF909F908F907F90A8
:102100006F905F904F903F90089560E08AE00E944A
:102110008A1560E08CE00E948A1560E08BE00E94E6
:102120008A1562E083E10C948A15AF92BF92CF9238
:10213000DF92FF920F931F93CF93DF93F82E8AE0E5
:102140000E94F4156C018CE00E94F4158C018BE068
:102150000E94F4155C0183E10E94F41521E030E057
:10216000892B11F030E020E043E0220F331F4A9525
:10217000E1F7C1E0D0E0AB2811F4D0E0C0E0CC0F33
:10218000DD1FCC0FDD1F2C2BC1E0CD2809F4C0E0F2
:102190002C2BC1E0D0E0012B11F4D0E0C0E0CC0F3B
:1021A000DD1FC22B62E370E080E090E00E94C2136A
:1021B000C11104C0F110C3CFD0E013C0DC2FFF2049
:1021C00081F005E010E064E670E080E090E00E94BD
:1021D000C2138CE00E94F4150150110969F0892B9B
:1021E00091F78D2FDF91CF911F910F91FF90DF908D
:1021F000CF90BF90AF900895892B99F3CD7FDC2FBE
:10220000D061EFCFCF92DF92EF92FF920F931F93A7
:10221000CF93DF93EC018B0161E085E30E948A1587
:102220001016110674F0BE01DD0F880B990BDF91BB
:10223000CF911F910F91FF90EF90DF90CF900C9472
:10224000C2139801012E000C440B550B60E472E49C
:102250008FE090E00E945B1769017A01F694E794A1
:10226000D794C7949E01D8010E94A41728EE33E0AA
:1022700040E050E00E945B178901D0E0C0E00C17FD
:102280001D0784F061E085E30E94C615C6010E9427
:10229000FB1360E085E30E94C615C6010E94FB1394
:1022A0002196EDCFDF91CF911F910F91FF90EF908D
:1022B000DF90CF9008958130910581F01CF4892B37
:1022C00039F0089582309105F9F0039761F008958F
:1022D00068EE73E084E190E00C94021164E670E033
:1022E00088EE93E0F9CF64E670E086E990E00E9422
:1022F000021170E060E084E190E00E94021164E667
:1023000070E086E990E0E8CF68EE73E084E690E064
:102310000E9402116CED75E084E690E00E940211CB
:1023200060ED77E084E690E0D7CF90E080E008951C
:102330008DEF9FEF08958DEF9FEF0895CF92DF927D
:10234000EF92FF920F931F93CF93DF93EC01462FF1
:10235000E881F9810484F585E02D62E070E019954B
:102360008C01CC88DD88EE88FF880E949D13688FE1
:10237000798F8A8F9B8FCC8EDD8EEE8EFF8EC8017B
:10238000DF91CF911F910F91FF90EF90DF90CF9051
:102390000895CF93DF93EC011B821A8281E095E0D0
:1023A000998388831F82188680ED97E0A0E0B0E0D3
:1023B000888B998BAA8BBB8B86E290E0A0E0B0E083
:1023C0008C8B9D8BAE8BBF8B1C861D861E861F86BD
:1023D0001B860E949D13688F798F8A8F9B8F1C8E1E
:1023E0001D8E1E8E1F8EDF91CF910895DC01ED9121
:1023F000FC910684F785E02D6FEF19948F929F92E0
:10240000AF92BF92EF92FF921F93CF93DF93EC01B5
:10241000162FE881F9810484F585E02D462F70E0C0
:1024200060E019957C0111501230D8F419861A8693
:1024300088889988AA88BB880E949D13688F798FA5
:102440008A8F9B8F8C8E9D8EAE8EBF8EC701DF9143
:10245000CF911F91FF90EF90BF90AF909F908F9082
:1024600008958C889D88AE88BF88E6CF61E00C9483
:10247000FE11DC0118968C911897481710F04FEF59
:10248000480F1B969C911B97992389F017969C9156
:102490001797691730F0691B4F5F4817D0F340E07A
:1024A000F8CF19966C9319971A964C931A97FD01C9
:1024B000E40FF11D8485680F6068CD010C94FE1156
:1024C000FC016581262F246025836C600C94FE112D
:1024D000EF92FF920F931F93CF93DF93EC01F42EB3
:1024E000E22E842F94E0941708F484E09C859111E7
:1024F00009C09D85911106C09E85911103C09F85DD
:10250000992329F09F81992341F0961731F01C8679
:1025100090E49D876E87960F9F8788876F8364E618
:1025200070E080E090E00E94C2131C82E881F98193
:102530000084F185E02DCE0119958C01892B09F0DD
:102540004AC08885823018F08C8188608C83EE20A8
:1025500031F081E0F81203C08C8184608C8360E3E9
:10256000CE010E949E1165E070E080E090E00E9444
:10257000C21360E3CE010E949E1161E070E080E032
:1025800090E00E94C21360E3CE010E949E1161E0C0
:1025900070E080E090E00E94C2138C8184FD04C052
:1025A00060E2CE010E949E116C816062CE010E94A9
:1025B000FE1184E08D83CE010E946012CE010E9444
:1025C000361282E08E8366E0CE010E94FE118C01FD
:1025D000CE010E94F611C801DF91CF911F910F919A
:1025E000FF90EF900895CF92DF92EF92FF920F93BA
:1025F0001F93CF93DF93EC01462FE881F981048488
:10260000F585E02D61E070E019958C01CC88DD88BE
:10261000EE88FF880E949D13688F798F8A8F9B8F29
:10262000CC8EDD8EEE8EFF8E81E090E0012B11F0DE
:1026300090E080E0DF91CF911F910F91FF90EF909C
:10264000DF90CF9008950F931F93CF93DF93EC010A
:102650000E94F3128C018B85882399F089858F5F06
:1026600089879F81891768F019868A858F5F8A8795
:102670009885891708F01A864A8560E0CE010E9485
:102680003912C801DF91CF911F910F9108951F92C8
:102690000F920FB60F9211242F933F938F939F9316
:1026A000AF93BF9380916D0590916E05A0916F05DA
:1026B000B091700530916C0523E0230F2D3768F140
:1026C00026E8230F0296A11DB11D20936C0580936F
:1026D0006D0590936E05A0936F05B0937005809182
:1026E000680590916905A0916A05B0916B05019606
:1026F000A11DB11D8093680590936905A0936A059B
:10270000B0936B05BF91AF919F918F913F912F91A6
:102710000F900FBE0F901F9018950196A11DB11D2F
:10272000D4CF2FB7F89460916D0570916E058091AC
:102730006F05909170052FBF08953FB7F894809171
:10274000680590916905A0916A05B0916B0526B561
:10275000A89B05C02F3F19F00196A11DB11D3FBFD9
:10276000BA2FA92F982F8827BC01CD01620F711DA8
:10277000811D911D42E0660F771F881F991F4A95A2
:10278000D1F708958F929F92AF92BF92CF92DF922E
:10279000EF92FF926B017C010E949D134B015C0143
:1027A000C114D104E104F104E9F00E9446170E942B
:1027B0009D13681979098A099B09683E7340810550
:1027C000910570F321E0C21AD108E108F10888EE02
:1027D000880E83E0981EA11CB11CC114D104E10431
:1027E000F10429F7FF90EF90DF90CF90BF90AF906A
:1027F0009F908F9008958230910538F0880F991F2F
:10280000880F991F05970197F1F70895789484B57B
:10281000836084BD85B5836085BDEEE6F0E0808190
:1028200081608083E1E8F0E082E0808380818160E4
:102830008083E0E8F0E0808181608083E1EBF0E07C
:10284000808184608083E0EBF0E080818160808320
:10285000E1E9F0E0808183608083E0E9F0E080815D
:1028600081608083E1EAF0E0808183608083E0EA38
:10287000F0E0808181608083E1E2F1E0808183602B
:102880008083E0E2F1E080818160808387E880934B
:102890007A001092C10008951F93CF93DF93182FF1
:1028A000EB0161E00E948A15209739F460E0812FE6
:1028B000DF91CF911F910C94C615CF3FD10511F434
:1028C00061E0F5CFE12FF0E0E556FD4FE491E250F5
:1028D000E23108F0B3C0F0E08827EE58FB4E8F4F8E
:1028E0000C949C1784148C1491149B14A5141E151D
:1028F000AF14B714BF14C914D314DD14EC14F614B8
:102900001E1500150A15141584B5806884BDC7BD51
:10291000DF91CF911F91089584B5806284BDC8BDB9
:10292000F7CF80918000806880938000D0938900E9
:10293000C0938800EDCF80918000806280938000FA
:10294000D0938B00C0938A00E3CF80918000886091
:1029500080938000D0938D00C0938C00D9CF80915C
:10296000B00080688093B000C093B300D1CF809155
:10297000B00080628093B000C093B400C9CF809152
:102980009000806880939000D0939900C093980045
:10299000BFCF80919000806280939000D0939B0085
:1029A000C0939A00B5CF809190008860809390008A
:1029B000D0939D00C0939C00ABCF8091A000806815
:1029C0008093A0008091A0008F7B8093A000D09383
:1029D000A900C093A8009CCF8091A0008062809342
:1029E000A000D093AB00C093AA0092CF8091A0002A
:1029F00088608093A000D093AD00C093AC0088CFD6
:102A000080912001806880932001D0932901C09398
:102A100028017ECF80912001806280932001D09395
:102A20002B01C0932A0174CF80912001886080938C
:102A30002001D0932D01C0932C016ACFC038D1055D
:102A40000CF03ECF33CF8250823108F05FC0E82FC8
:102A5000F0E08827E15DFA4E8F4F0C949C178315A8
:102A60008715411547154B1586154F1555155915E1
:102A70005F15631567156D157115861575157B1531
:102A80007F15809180008F778093800008958091DA
:102A900080008F7DF9CF80918000877FF5CF809176
:102AA000B0008F778093B00008958091B0008F7D43
:102AB000F9CF809190008F77809390000895809156
:102AC00090008F7DF9CF80919000877FF5CF809126
:102AD000A0008F778093A00008958091A0008F7D43
:102AE000F9CF8091A000877FF5CF809120018F776B
:102AF000809320010895809120018F7DF9CF8091EE
:102B00002001877FF5CF84B58F7784BD089584B584
:102B10008F7DFBCFCF93DF9390E0FC01EF50FD4F13
:102B20002491895B9C4FFC0184918823C9F090E03B
:102B3000880F991FFC01EF52FC4FA591B491FC0145
:102B4000E954FC4FC591D49161110DC09FB7F89421
:102B50008C91209582238C938881282328839FBF82
:102B6000DF91CF910895623051F49FB7F8943C9172
:102B7000822F809583238C93E8812E2BEFCF8FB704
:102B8000F894EC912E2B2C938FBFEACF1F93CF9309
:102B9000DF93282F30E0F901E556FD4F8491F901CC
:102BA000EF50FD4FD491F901E95BFC4FC491CC2368
:102BB000A9F0162F81110E942315EC2FF0E0EE0FE3
:102BC000FF1FE954FC4FA591B4918FB7F894EC9195
:102BD000111108C0D095DE23DC938FBFDF91CF9118
:102BE0001F910895DE2BF8CFCF93DF93282F30E08D
:102BF000F901E556FD4F8491F901EF50FD4FD49155
:102C0000F901E95BFC4FC491CC23A1F081110E9432
:102C10002315EC2FF0E0EE0FFF1FE356FC4FA591BC
:102C2000B491EC91ED2381E090E009F480E0DF9134
:102C3000CF91089580E090E0FACFAF92BF92CF920B
:102C4000DF92EF92FF920F931F93CF93DF936C016C
:102C50007B018B01040F151FEB015E01AE18BF084D
:102C6000C017D10759F06991D601ED91FC910190FF
:102C7000F081E02DC6011995892B79F7C501DF9107
:102C8000CF911F910F91FF90EF90DF90CF90BF9069
:102C9000AF900895FB0101900020E9F73197AF0153
:102CA000461B570BDC01ED91FC910280F381E02D76
:102CB0001994EF92FF920F931F93CF93DF938C01A0
:102CC0007B01D0E0C0E0F701EC0FFD1F64916623AB
:102CD00061F0D801ED91FC910190F081E02DC801E7
:102CE0001995892B11F02196EECFCE01DF91CF916E
:102CF0001F910F91FF90EF9008956115710511F0EC
:102D00000C944A1690E080E00895DC01ED91FC916E
:102D10000190F081E02D19948F929F92AF92BF9213
:102D2000EF92FF920F931F93CF93DF93CDB7DEB750
:102D3000A1970FB6F894DEBF0FBECDBF7C01FA019C
:102D4000CB0119A2223008F42AE08E010F5D1F4F3B
:102D5000822E912CB12CA12CBF01A50194010E94BF
:102D60005B17F901CA016A300CF5605DD8016E93FA
:102D70008D01232B242B252B79F790E080E01097F1
:102D800021F0BD01C7010E944A16A1960FB6F89422
:102D9000DEBF0FBECDBFDF91CF911F910F91FF908E
:102DA000EF90BF90AF909F908F900895695CDECFB9
:102DB000CF92DF92EF92FF920F931F93CF93DF9307
:102DC0002115310581F4DC01ED91FC910190F08138
:102DD000E02D642FDF91CF911F910F91FF90EF9025
:102DE000DF90CF9019942A30310501F52AE077FF62
:102DF0001DC06A017B01EC016DE20E9485168C0109
:102E000044275527BA014C195D096E097F092AE04C
:102E1000CE010E948C16800F911FDF91CF911F91E0
:102E20000F91FF90EF90DF90CF900895DF91CF91B9
:102E30001F910F91FF90EF90DF90CF900C948C1624
:102E40009A01AB01770F660B770B0C94D8162115FE
:102E5000310541F4DC01ED91FC910190F081E02D10
:102E6000642F19940C948C160E94D61708950E9412
:102E700006140E9436170E94420CC0E0D0E00E9467
:102E8000340D2097E1F30E940000F9CF089597FBDD
:102E9000072E16F4009407D077FD09D00E94C217C0
:102EA00007FC05D03EF4909581959F4F089570954D
:102EB00061957F4F0895A1E21A2EAA1BBB1BFD014D
:102EC0000DC0AA1FBB1FEE1FFF1FA217B307E40709
:102ED000F50720F0A21BB30BE40BF50B661F771F61
:102EE000881F991F1A9469F7609570958095909541
:102EF0009B01AC01BD01CF010895052E97FB1EF487
:102F000000940E94941757FD07D00E945B1707FC9E
:102F100003D04EF40C94941750954095309521951C
:102F20003F4F4F4F5F4F08959095809570956195F5
:102F30007F4F8F4F9F4F0895EE0FFF1F881F8BBF4E
:102F40000790F691E02D19940E94AC17332312F4E8
:102F50008A1B9B0B0C94BD17A29FB001B39FC001AD
:102F6000A39F700D811D1124911DB29F700D811DB5
:102F70001124911D08950E94AC17B7FF0895821B7C
:102F8000930B0895AA1BBB1B51E107C0AA1FBB1FCF
:102F9000A617B70710F0A61BB70B881F991F5A95E5
:102FA000A9F780959095BC01CD01089581E090E04E
:102FB000F8940C94F017DC0101C06D93415050401F
:102FC000E0F70895FB01DC014150504030F08D9155
:102FD0000190801919F40020B9F7881B990B089506
:042FE000F894FFCF93
:102FE400FF4FFFFFFFFFFFFFFFFFFFFFFFFFFFFF9D
:102FF400FFFFFFFFFFFFFFFFFFFFFFFFFF50FFFF8C
:10300400FFFFFFFFFFFFFFFFFF4B4CFFFFFFFFFF33
:10301400FFFFFFFFFFFFFFFFFFFFFFFF4D4EFFFF1F
:10302400FFFFFFFFFFFFFFFFFFFF4142434449FF54
:10303400FFFFFFFFFFFFFFFFFFFF45464A47FFFF7C
:10304400FFFF48FF37FFFFFFFFFF4038393A3B3CA3
:10305400FF3DFF3EFFFFFFFFFFFFFFFF55FFFFFFA9
:10306400FFFFFF3FFF34333231302F2E2D2C2B2A1C
:10307400292827262524232221201F1E1D1C1B1A34
:103084001918171615FFFF416C6C204F4E207465FC
:1030940073743A2000496E70757420746573743AC1
:1030A4002000436F6E6E65637420612070696E202A
:1030B400746F20005369676E616C20646574656386
:1030C4007465642061743A00202020202020202090
:1030D4002020202020202020202020200057616C48
:1030E4006B696E6720746573743A20005A494620F0
:1030F40050696E3A200053454C3A4E657874202D41
:10310400204A554D503A457869740054696D6520DC
:103114004D6561737572696E670042656E63686DB3
:1031240061726B20312F323A2000732F0042656E9A
:1031340063686D61726B203320203A20004469611A
:10314400676E6F7374696320546F6F6C00312E3037
:103154003500627920386269742D6D757365756DFB
:103164002E64650053656C65637465640053656C17
:103174006674657374205663630053656C66746586
:103184007374205664640053656C667465737420AC
:103194005673730053656C6674657374204C6F7753
:1031A4002F486967680057616C6B696E67207465A6
:1031B40073743A205369676E616C0057616C6B6974
:1031C4006E6720746573743A205663630057616CAC
:1031D4006B696E6720746573743A20567373005775
:1031E400616C6B696E6720746573743A205664640D
:1031F4000057616C6B696E6720746573743A20566E
:10320400626200416C6C204F4E3A20566363004169
:103214006C6C204F4E3A2056737300416C6C204FF7
:103224004E3A2056646400416C6C204F4E3A20564E
:10323400626200496E70757420546573743A204C50
:103244006F7700496E70757420546573743A204822
:103254006967680042656E63686D61726B000000A7
:10326400000023131D16440247029B022303DB03C1
:103274004B0248020A0C010305060800000601156A
:1032840001260137014A015D01720188019F01B8DD
:1032940001D201EE010B022A024B026E029302BA22
:1032A40002E40210033F037003A403DC0317045574
:1032B400049704DD0427057505C80520067D06E08E
:1032C400064907B8072D08A9082D09B9094D0AEAC6
:1032D4000A900B400CFA0CC00D910E6F0F00000009
:1032E4000023131D16440247029511981134179BAD
:0432F400114802007B
:020000021000EC
:10000000EC1A2F1A3C1943188017AD168B15B11432
:10001000BA130F13F81131111810530E8A0CB80BC4
:10002000500BE00AA609330962084707B806AC0579
:100030006C045903A9014C0042003C0041004000FF
:10004000000047004600004578697400A001500098
:10005000646F6F6D5F6D61703A643D342C6F3D3538
:100060002C623D38303A313665342C313667342CC9
:10007000313665342C313665342C313665342C31CB
:10008000366623342C313665342C313665342C31C8
:100090003665342C31366123342C313665342C31BD
:1000A0003661342C313665342C313667342C313698
:1000B00065342C313665342C313665342C31366755
:1000C000342C313665342C313665342C3136653478
:1000D0002C31366623342C313665342C3136653478
:1000E0002C313665342C31366123342C313665346D
:1000F0002C313661342C313665342C313667342C52
:10010000313665342C31366623342C313667342C45
:1001100031366123342C313667342C313667342C38
:10012000313667342C3136632C313667342C313616
:1001300067342C313667342C313663232C313667E3
:10014000342C3136632C313667342C31366123340C
:100150002C313667342C313667342C313667342CE9
:1001600031366123342C313667342C313667342CE8
:10017000313667342C3136632C313667342C3136C6
:1001800067342C313667342C313663232C31366793
:10019000342C3136632C313667342C3861233400EB
:1001A000446F6F6D204D6170005403AD01646F6F3B
:1001B0006D3A643D342C6F3D352C623D3131323A1D
:1001C000313665342C313665342C3136652C313678
:1001D00065342C313665342C3136642C3136653437
:1001E0002C313665342C3136632C313665342C3164
:1001F0003665342C31366123342C313665342C315C
:100200003665342C313662342C3136632C31366508
:10021000342C313665342C3136652C313665342C2E
:10022000313665342C3136642C313665342C313618
:1002300065342C3136632C313665342C31366534D7
:100240002C6123342C3136702C313665342C313608
:1002500065342C3136652C313665342C31366534B5
:100260002C3136642C313665342C313665342C31E2
:1002700036632C313665342C313665342C31366199
:1002800023342C313665342C313665342C313662CA
:10029000342C3136632C313665342C313665342CB0
:1002A0003136652C313665342C313665342C313697
:1002B000642C313665342C313665342C3136632C60
:1002C000313665342C313665342C6123342C31368B
:1002D000702C313661342C313661342C3136612C3E
:1002E000313661342C313661342C3136672C31365D
:1002F00061342C313661342C3136662C3136613420
:100300002C313661342C313664232C313661342C57
:10031000313661342C3136652C3136662C313661FC
:10032000342C313661342C3136612C313661342C29
:10033000313661342C3136672C313661342C31360C
:1003400061342C3136662C313661342C31366134CF
:100350002C642300446F6F6D0059045D036C61725F
:1003600072793A643D342C6F3D352C623D31313227
:100370003A38652C3136702C38662C3136702C3872
:1003800066232C3136702C38672C3136612C386559
:100390002C38672C3136702C38612C3136702C316A
:1003A00036652C38672C3136612C38672C38632E33
:1003B000362C702C38612C313663362C3867232C60
:1003C00038612C3136702C3863362C3136702C3134
:1003D0003667232C38612C313663362C3864362C42
:1003E0003864232E362C3136702C3863362C313657
:1003F000702C3865362C3136702C3865362C3136F9
:10040000702C3865362C3136702C3865362C3136E8
:10041000702C3865362C31366423362C3864362CF3
:100420003863232E362C3136702C38612C313670DF
:100430002C386423362C313665362C386423362C20
:10044000313665362C3863362C3864362C313670AC
:100450002C3863362C313670004C656973757265C3
:100460002053756974204C6172727900A60570047E
:100470006D6F6E74795F7469746C653A643D342C89
:100480006F3D352C623D3134303A38672C3136645B
:10049000362C313664362C386323362C3864362CAF
:1004A0003867362C3864362C386323362C3864365B
:1004B0002C38672C313664362C313664362C386350
:1004C00023362C3864362C3867362C386623362C85
:1004D0003867362C3861362C386123362C31366338
:1004E000372C31366123362C3861362C3866362C61
:1004F000386423372C31366623372C313664233762
:100500002C3864372C3863372C3164372C38672CFF
:10051000313664362C313664362C386323362C3829
:1005200064362C3867362C3864362C386323362CE6
:100530003864362C38672C313664362C31366436C4
:100540002C386323362C3864362C3867362C3866C2
:1005500023362C3867362C3861362C386123362CFC
:10056000313663372C31366123362C3861362C38DE
:1005700067362C386423372C313666372C31366495
:1005800023372C3864372C3866372C386123362CC7
:10059000313663372C31366123362C3861362C38AE
:1005A00064372C6736004D6F6E747900AA06B0056B
:1005B00050426F62626C653A643D342C6F3D362C5C
:1005C000623D3131323A3861352C313661352C3863
:1005D000632C38632C3861232E352C642E2C386123
:1005E000352C313661352C38632C38632C38612337
:1005F0002E352C672E352C3861352C313661352C53
:1006000038632C38632C3861232E352C38642C3811
:10061000662C38672C3136612C3136672C313666C2
:100620002C38672C3136652C662E2C313663372CEE
:100630003863372C3863372C38612C3136612C38CD
:1006400063372C3863372C3861232C3332622C33D8
:100650003263372C642E372C38612C3136612C38BC
:1006600063372C3863372C3861232E2C672E2C38B7
:10067000612C3136612C3863372C3863372C386164
:10068000232E2C3864372C3866372C3867372C31BA
:100690003661372C313667372C313666372C386760
:1006A000372C313665372C66370050757A7A6C6591
:1006B00020426F62626C65004107BC0650656E6740
:1006C0006F3A643D342C6F3D352C623D3134303A05
:1006D0003865362C3864362C3865362C38622C3820
:1006E000672C38622C652C3865362C3864362C38EB
:1006F00065362C38622C38672C38622C652C3865AE
:10070000362C386623362C3867362C31366623363D
:100710002C38672E362C3865362C386623362C312B
:100720003665362C3866232E362C3864362C3865E0
:10073000362C3863362C38672C3863362C386536BF
:100740000050656E676F005A084B075061636C611B
:100750006E643A643D342C6F3D352C623D3134304B
:100760003A313666362C313667362C313666362CC1
:10077000313667362C3866362C3136612C3136618D
:10078000232C313663362C313664362C31366336C1
:100790002C313664362C3863362C3136662C3136A3
:1007A000672C3136612C3136702C3136612C31702A
:1007B0002C313666362C313667362C313666362C7F
:1007C000313667362C3866362C3136612C3136613D
:1007D000232C313663362C313664362C3136633671
:1007E0002C313664362C3863362C38662C3136671B
:1007F0002C3136702C3136672C31702C612C3865D9
:10080000362C38702C612C3865362C702C313666BD
:10081000362C3866362C313664362C3865362C3812
:10082000642E362C702C672C3864362C38702C676C
:100830002C3864362C702C313663362C31366436C5
:100840002C313665362C313664362C313663362CF5
:10085000313664362C38632E36005061636C616E1D
:10086000640025096608496E64793A643D342C6F4A
:100870003D352C623D3235303A652C38702C386667
:100880002C38672C38702C3163362C38702E2C6441
:100890002C38702C38652C31662C702E2C672C3837
:1008A000702C38612C38622C38702C3166362C70E4
:1008B0002C612C38702C38622C3263362C32643622
:1008C0002C3265362C652C38702C38662C38672C09
:1008D00038702C3163362C702C64362C38702C38E0
:1008E00065362C31662E362C672C38702C38672CE8
:1008F000652E362C38702C64362C38702C38672CCA
:10090000652E362C38702C64362C38702C38672CB9
:10091000662E362C38702C65362C38702C386436A0
:100920002C32633600496E6469616E61204A6F6ED5
:100930006573009E09370946726F676765723A648E
:100940003D342C6F3D352C623D3235303A61232CDD
:1009500066232C66232C66232C61232C66232C66AD
:10096000232C66232C622C622C61232C61232C32D5
:1009700067232C32702C622C622C61232C61232C77
:1009800067232C67232C6423362C6423362C6323A3
:10099000362C622C61232C67232C3266230046728E
:1009A0006F6767657200D20AAA09427562626C6558
:1009B00020426F62626C653A643D342C6F3D352C89
:1009C000623D3132353A386123362C3861362C3865
:1009D000672E362C313666362C3861362C38673621
:1009E0002C3866362C386423362C3867362C38661B
:1009F000362C31366423362C38642E362C662E364F
:100A00002C313664362C313663362C3861232C3841
:100A100063362C3864362C386423362C3863362CF5
:100A2000313664362C3864232E362C3866362C3812
:100A300066362C3867362C313661362C38672E36C0
:100A40002C3866362C3866362C3867362C386136AA
:100A50002C386123362C3861362C38672E362C31F1
:100A60003666362C3861362C3867362C3866362C8C
:100A7000386423362C3867362C3866362C31366489
:100A800023362C38642E362C662E362C31366436BE
:100A90002C313663362C3861232C3863362C38647D
:100AA000362C386423362C3863362C313664362C99
:100AB0003864232E362C3866362C3866362C386748
:100AC000362C313661362C38662E362C3861232E82
:100AD0003600427562626C6520426F62626C65002E
:100AE000440BE40A444B6F6E673A643D342C6F3D0F
:100AF000352C623D3136303A32632C38642E2C640A
:100B0000232E2C632E2C3136622C313663362C3159
:100B100036622C313663362C3136622C31366336F0
:100B20002C3136622C313663362C3136622C31361C
:100B300063362C3136622C313663362C3136622CDA
:100B400032633600446F6E6B6579204B6F6E6700C1
:100B5000AE0B540B576F6E646572626F793A643DE9
:100B6000342C6F3D352C623D3232353A66362C647A
:100B7000362C66362C3864362C66362C3332702C84
:100B80003866362C64362C66362C64362C65362C4A
:100B900063362C65362C3863362C65362C33327030
:100BA0002C3865362C63362C65362C633600576F2F
:100BB0006E646572626F7900830CBC0B506F706558
:100BC00079653A643D342C6F3D352C623D313430CB
:100BD0003A3136672E2C3136662E2C3136672E2C64
:100BE0003136702C3332702C3136632E2C31367006
:100BF0002C3332702C3136632E2C3136702C33323C
:100C0000702C3136652E2C3136642E2C3136632E05
:100C10002C3136642E2C3136652E2C3136662E2C36
:100C2000672C38702C3136612C3136662C313661A8
:100C30002C313663362C3136622C3136612C31360C
:100C4000672C3136612C3136672C38652C3136678C
:100C50002C3136672C3136672C3136672C38612CB5
:100C60003136622C333263362C3332622C333263AA
:100C7000362C3332622C333263362C3332622C38CA
:100C8000633600506F70657965004D0E8E0C5A65A5
:100C90006C6461313A643D342C6F3D352C623D31DA
:100CA00032353A61232C662E2C3861232C31366183
:100CB000232C313663362C313664362C313664239E
:100CC000362C3266362C38702C3866362C31366627
:100CD0002E362C31366623362C313667232E362CB1
:100CE0003261232E362C313661232E362C31366775
:100CF00023362C313666232E362C3867232E362C9D
:100D0000313666232E362C3266362C66362C386405
:100D100023362C31366423362C313666362C326637
:100D200023362C3866362C386423362C3863233629
:100D30002C31366323362C31366423362C3266361A
:100D40002C386423362C386323362C3863362C3108
:100D50003663362C313664362C3265362C67362CA9
:100D60003866362C3136662C3136662C38662C3196
:100D700036662C3136662C38662C3136662C313688
:100D8000662C38662C38662C61232C662E2C386134
:100D9000232C313661232C313663362C31366436C0
:100DA0002C31366423362C3266362C38702C38665B
:100DB000362C3136662E362C31366623362C3136BB
:100DC00067232E362C3261232E362C6323372C6377
:100DD000372C3261362C66362C3266232E362C6147
:100DE00023362C61362C3266362C66362C3266233E
:100DF0002E362C6123362C61362C3266362C643626
:100E00002C3264232E362C6623362C66362C326325
:100E100023362C61232C63362C313664362C326514
:100E2000362C67362C3866362C3136662C313666D1
:100E30002C38662C3136662C3136662C38662C31CF
:100E400036662C3136662C38662C3866005A656C4E
:100E50006461001010570E546F6363617461413A0E
:100E6000643D33322C6F3D362C623D39303A313699
:100E7000642C64232E2C662E2C642E2C64232E2CA2
:100E8000662E2C642E2C64232E2C662E2C642E2C85
:100E9000313664232C3136662C66232E2C67232EA4
:100EA0002C662E2C66232E2C67232E2C662E2C6669
:100EB000232E2C67232E2C662E2C313666232C31C4
:100EC0003667232C61232E2C622E2C67232E2C6157
:100ED000232E2C622E2C67232E2C61232E2C622E87
:100EE0002C313667232C3261232C313661232C6759
:100EF000232E2C622E2C662E2C67232E2C622E2C59
:100F0000662E2C66232E2C61232E2C64232E2C6619
:100F1000232E2C61232E2C64232E2C662E2C67234B
:100F20002E2C642E2C662E2C67232E2C642E2C64E3
:100F3000232E2C66232E2C632E2C64232E2C31364C
:100F400066232C3136632C313663232C3136662CE4
:100F500031366123352C313663232C3136662C3102
:100F6000366123352C3136632C313664232C3136EF
:100F70006723352C3136632C313664232C313667A8
:100F800023352C31366123352C313663232C313611
:100F90006623352C31366123352C313663232C31D1
:100FA000366623352C31366723352C313662352CA5
:100FB000313666352C31366723352C313662352C87
:100FC000313666352C31366623352C313661233582
:100FD0002C31366423352C31366623352C3136617D
:100FE00023352C31366423352C313666352C313699
:100FF0006723352C313664352C313666352C313645
:101000006723352C3136642E352C3464232E35007D
:10101000546F63636174610029111C10506F706319
:101020006F726E3A643D31362C6F3D352C623D3126
:1010300036303A612C702C672C702C612C702C652A
:101040002C702C632C702C652C702C3861342C384F
:10105000702C612C702C672C702C612C702C652CE2
:10106000702C632C702C652C702C3861342C3870EB
:101070002C612C702C622C702C63362C702C622C02
:10108000702C63362C702C612C702C622C702C61AF
:101090002C702C622C702C672C702C612C702C679F
:1010A0002C702C612C702C662C38612C38702C61C3
:1010B0002C702C672C702C612C702C652C702C6380
:1010C0002C702C652C702C3861342C38702C612CD1
:1010D000702C672C702C612C702C652C702C632C60
:1010E000702C652C702C3861342C38702C612C706D
:1010F0002C622C702C63362C702C622C702C633676
:101100002C702C612C702C622C702C612C702C6239
:101110002C702C672C702C612C702C672C702C611F
:101120002C702C622C34633600506F70636F726EBB
:1011300000EF1135114D756E73746572733A643D2D
:10114000382C6F3D352C623D3136303A642C662C9C
:10115000642C67232C612C3464362C61232C612C85
:1011600032672C662C672C34612C61342C67233455
:101170002C61342C62342C3463232C32642C347074
:101180002C34632C3463362C3463362C3263362C87
:1011900061232C612C61232C672C612C34662C3448
:1011A000702C34672C34672C32672C662C652C66C7
:1011B0002C642C652C3263232C34702C34642C6604
:1011C0002C642C67232C612C3464362C61232C6115
:1011D0002C32672C662C672C34612C61342C6723ED
:1011E000342C61342C62342C3463232C3264004D53
:1011F000756E7374657273000413FC1142656E6E34
:10120000792048696C6C3A643D31362C6F3D352C41
:10121000623D3132353A38642E2C652C38672C38D3
:10122000672C652C642C61342C62342C642C623461
:101230002C38652C642C62342C61342C62342C38AC
:1012400061342C61342C6123342C62342C642C6581
:101250002C642C34672C34702C642C652C642C3852
:10126000672C38672C652C642C61342C62342C6418
:101270002C62342C38652C642C62342C61342C6242
:10128000342C38642C642C642C66232C612C386636
:101290002C34642C34702C642C652C642C38672C12
:1012A000672C672C38672C672C672C38672C3867BD
:1012B0002C652C38652E2C38632C38632C38632C25
:1012C00038632C652C672C612C672C61232C3867C4
:1012D0002C612C622C61232C622C612C622C3864D2
:1012E000362C612C622C64362C38622C38672C38F2
:1012F000642C65362C622C622C642C38612C386787
:101300002C34670042656E6E792048696C6C00ADC4
:101310001313134164616D732046616D696C793AF2
:10132000643D382C6F3D352C623D3136303A632CAC
:1013300034662C612C34662C632C3462342C326776
:101340002C662C34652C672C34652C67342C346364
:101350002C32662C632C34662C612C34662C632C66
:101360003462342C32672C662C34652C632C346444
:101370002C652C31662C632C642C652C662C31700A
:101380002C642C652C66232C672C31702C642C6506
:101390002C66232C672C34702C642C652C66232C33
:1013A000672C34702C632C642C652C6600416461BE
:1013B0006D732046616D696C7900AA14BE13417883
:1013C000656C2D463A643D342C6F3D352C623D31C1
:1013D00032353A672C3861232E2C3136672C313662
:1013E000702C3136672C3863362C38672C38662CD5
:1013F000672C38642E362C3136672C3136702C3100
:1014000036672C386423362C3864362C3861232C0C
:1014100038672C3864362C3867362C3136672C31D7
:1014200036662C3136702C3136662C38642C386197
:10143000232C32672C702C313666362C3864362CCF
:101440003863362C3861232C672C3861232E2C31DD
:1014500036672C3136702C3136672C3863362C3891
:10146000672C38662C672C38642E362C3136672C66
:101470003136702C3136672C386423362C3864367C
:101480002C3861232C38672C3864362C3867362C7E
:101490003136672C3136662C3136702C3136662C5D
:1014A00038642C3861232C3267004178656C2D46F6
:1014B000007615B514476F6F644261643A643D3439
:1014C0002C6F3D352C623D35363A3332702C333239
:1014D00061232C33326423362C333261232C333294
:1014E0006423362C3861232E2C313666232E2C3182
:1014F0003667232E2C64232C333261232C33326441
:1015000023362C333261232C33326423362C38615A
:10151000232E2C313666232E2C313667232E2C6356
:1015200023362C333261232C33326423362C33326E
:1015300061232C33326423362C3861232E2C313630
:1015400066232E2C3332662E2C333264232E2C63EA
:10155000232C333261232C33326423362C33326113
:10156000232C33326423362C3861232E2C313667FA
:10157000232E2C642300476F6F642C204261642C5F
:101580002055676C792C202E2E2E009A168F15531D
:10159000746172576172732F496D703A643D342CD7
:1015A0006F3D352C623D3131323A38642E2C313664
:1015B000702C38642E2C3136702C38642E2C313639
:1015C000702C386123342C3136702C3136662C382F
:1015D000642E2C3136702C386123342C3136702C2B
:1015E0003136662C642E2C38702C38612E2C313616
:1015F000702C38612E2C3136702C38612E2C3136FF
:10160000702C3861232C3136702C3136662C3863BF
:10161000232E2C3136702C386123342C3136702C2B
:101620003136662C642E2C38702C38642E362C31D2
:1016300036702C38642C3136702C3136642C38647A
:10164000362C38702C386323362C3136702C3136DA
:1016500063362C3136622C313661232C38622C38BB
:10166000702C313664232C3136702C3867232C389B
:10167000702C38672C3136702C313666232C31367D
:10168000662C3136652C38662C38702C3136612347
:10169000342C3136702C326323005374617220571E
:1016A00061727320496D70657269616C006E17B16B
:1016B0001643616E74696E613A643D342C6F3D353A
:1016C0002C623D3235303A38612C38702C38643613
:1016D0002C38702C38612C38702C3864362C3870CB
:1016E0002C38612C3864362C38702C38612C3870CA
:1016F0002C3867232C612C38612C3867232C3861F7
:101700002C672C3866232C38672C3866232C662EE1
:101710002C38642E2C3136702C702E2C38612C38DD
:10172000702C3864362C38702C38612C38702C387A
:1017300064362C38702C38612C3864362C38702C78
:1017400038612C38702C3867232C38612C38702C79
:1017500038672C38702C672E2C3866232C38672C71
:1017600038702C3863362C61232C612C670053743D
:10177000617220576172732043616E74696E6100FB
:10178000321884175374617257617273456E643AEC
:10179000643D342C6F3D352C623D3232353A326334
:1017A0002C31662C32672E2C3867232C3861232C81
:1017B0003167232C32632E2C632C32662E2C672C3F
:1017C00067232C632C3867232E2C38632E2C386328
:1017D000362C3161232E2C32632C32662E2C672C52
:1017E00067232E2C38662C632E362C3867232C3139
:1017F00066362C32662C3867232E2C38672E2C3810
:10180000662C3263362C38632E362C3867232E2C08
:1018100038662C32632C38632E2C38632E2C3863B8
:101820002C32662C38662E2C38662E2C38662C32DC
:10183000660053746172205761727320456E64694B
:101840006E67003219471853746172576172733AA8
:10185000643D342C6F3D352C623D34353A33327063
:101860002C333266232C333266232C333266232CFE
:1018700038622E2C3866232E362C333265362C33C4
:10188000326423362C33326323362C38622E362CC6
:10189000313666232E362C333265362C33326423B0
:1018A000362C33326323362C38622E362C31366692
:1018B000232E362C333265362C33326423362C33C8
:1018C0003265362C3863232E362C333266232C3384
:1018D0003266232C333266232C38622E2C38662352
:1018E0002E362C333265362C33326423362C333289
:1018F0006323362C38622E362C313666232E362C56
:10190000333265362C33326423362C33326323363C
:101910002C38622E362C313666232E362C33326527
:10192000362C33326423362C333265362C3863231D
:10193000360053746172205761727300241A401983
:10194000426F6E643A643D342C6F3D352C623D38F5
:10195000303A3332702C31366323362C33326423E1
:10196000362C33326423362C31366423362C3864DB
:1019700023362C31366323362C31366323362C3113
:10198000366323362C31366323362C333265362CBE
:10199000333265362C313665362C3865362C313687
:1019A0006423362C31366423362C31366423362CAE
:1019B00031366323362C33326423362C333264239E
:1019C000362C31366423362C386423362C3136637A
:1019D00023362C31366323362C31366323362C31B3
:1019E000366323362C333265362C333265362C3150
:1019F0003665362C3865362C31366423362C313634
:101A000064362C31366323362C31366323372C630E
:101A10002E372C31366723362C31366623362C6729
:101A2000232E36004A616D657320426F6E6400E4B8
:101A30001A331A4D7570706574733A643D342C6FA7
:101A40003D352C623D3235303A63362C63362C619D
:101A50002C622C38612C622C672C702C63362C6322
:101A6000362C612C38622C38612C38702C672E2C67
:101A7000702C652C652C672C662C38652C662C38F0
:101A800063362C38632C38642C652C38652C38650B
:101A90002C38702C38652C672C32702C63362C63F4
:101AA000362C612C622C38612C622C672C702C63D4
:101AB000362C63362C612C38622C612C672E2C70EE
:101AC0002C652C652C672C662C38652C662C3863AD
:101AD000362C38632C38642C652C38652C642C38F3
:101AE000642C63004D75707065747300951CF01A5A
:101AF000466C696E73746F6E65733A643D342C6F17
:101B00003D352C623D34303A3332702C31366636F6
:101B10002C313661232C31366123362C3332673633
:101B20002C313666362C313661232E2C3136663612
:101B30002C33326423362C333264362C3332643601
:101B40002C33326423362C333266362C3136612303
:101B50002C313663362C64362C313666362C3136D1
:101B600061232E2C31366123362C333267362C31EB
:101B70003666362C313661232E2C333266362C33C2
:101B80003266362C33326423362C333264362C33AF
:101B90003264362C33326423362C333266362C31A1
:101BA0003661232C313663362C61232C3136613675
:101BB0002C3136642E362C31366123362C3332618B
:101BC000362C333261362C333267362C333266236F
:101BD000362C333261362C3867362C313667362C4A
:101BE0003136632E362C333261362C333261362C4B
:101BF000333267362C333267362C333266362C3329
:101C00003265362C333267362C3866362C313666E0
:101C1000362C313661232E2C31366123362C33326B
:101C200067362C313666362C313661232E2C313610
:101C300066362C33326423362C333264362C3332FE
:101C400064362C33326423362C333266362C3136EC
:101C500061232C3136632E362C333264362C3332EA
:101C60006423362C333266362C313661232C3136E0
:101C7000632E362C333264362C33326423362C33C5
:101C80003266362C31366123362C313663372C38A8
:101C900061232E3600466C696E73746F6E65730037
:00000001FF
